:020000040800F2
:1000000000000220511C0008710900087309000853
:100010007509000877090008790900080000000048
:100020000000000000000000000000007B09000844
:100030007D090008000000007F0900088109000810
:10004000A11C0008A11C0008A11C0008A11C00089C
:10005000A11C0008A11C0008A11C0008A11C00088C
:10006000A11C0008A11C0008A11C0008A11C00087C
:10007000A11C0008A11C0008A11C0008A11C00086C
:10008000A11C0008A11C0008A11C0008A11C00085C
:10009000A11C0008A11C0008A11C0008A11C00084C
:1000A000A11C0008A11C0008A11C0008A11C00083C
:1000B000A11C0008A11C0008A11C0008A11C00082C
:1000C000A11C0008A11C0008A11C0008A11C00081C
:1000D000A11C0008A11C0008A11C0008A11C00080C
:1000E000A11C0008A11C000800000000A11C0008C1
:1000F000A11C0008A11C0008A11C0008A11C0008EC
:10010000A11C0008A11C0008A11C0008A11C0008DB
:10011000A11C0008A11C0008A11C0008A11C0008CB
:10012000A11C0008A11C0008A11C0008A11C0008BB
:10013000A11C0008A11C0008A11C0008A11C0008AB
:1001400000000000000000000000000000000000AF
:10015000A11C0008A11C0008A11C0008A11C00088B
:10016000A11C0008A11C0008A11C0008A11C00087B
:10017000A11C0008A11C0008A11C0008A11C00086B
:10018000A11C0008A11C0008A11C0008A11C00085B
:10019000A11C0008A11C0008A11C0008A11C00084B
:1001A000A11C0008A11C0008A11C0008A11C00083B
:1001B000A11C0008A11C0008A11C0008A11C00082B
:1001C000A11C0008A11C0008A11C0008A11C00081B
:1001D000A11C0008A11C0008A11C0008A11C00080B
:1001E000A11C0008A11C0008A11C0008A11C0008FB
:1001F000A11C0008A11C0008A11C0008A11C0008EB
:10020000A11C0008A11C0008A11C0008A11C0008DA
:10021000A11C0008A11C0008A11C0008A11C0008CA
:10022000A11C0008A11C0008A11C0008000000007F
:10023000A11C0008A11C000800000000A11C00086F
:10024000A11C0008A11C0008A11C0008A11C00089A
:10025000A11C0008A11C0008A11C0008A11C00088A
:10026000A11C0008A11C0008A11C0008A11C00087A
:10027000A11C0008A11C0008A11C0008000000002F
:10028000A11C0008A11C0008A11C0008000000001F
:1002900000000000A11C000810B5054C237833B9FC
:1002A000044B13B10448AFF300800123237010BD49
:1002B0003C04002000000000081E000808B5034BA5
:1002C0001BB103490348AFF3008008BD00000000E4
:1002D00040040020081E000880B59CB0BFF34F8F7B
:1002E000BFF36F8F684B0021C3F85012BFF34F8FDD
:1002F000BFF36F8F5A6942F400325A61BFF34F8FD8
:10030000BFF36F8FC3F88410BFF34F8FD3F88020F3
:1003100043F6E076C2F3C904C2F34E32A507520198
:1003200002EA060C284621464CEA0007013900F192
:100330004040C3F860724F1CF6D1203A12F1200FF2
:10034000EED1BFF34F8F5A6942F480325A61BFF346
:100350004F8FBFF36F8F00F079FB022000F016FD86
:1003600000230093494BDA6A22F00102DA62DB6A69
:1003700003F001030093464B9A6942F440429A61AC
:100380009A6902F440420092009A9A699404FCD55A
:100390004FF480334FF0010E0520A02102220424E7
:1003A00008251692189217941995CDE909E30023B0
:1003B000CDE9140109A80C9310931B931A93CDE96E
:1003C000122201F005F800B1FEE703234FF03F0CC5
:1003D0004FF480622146CDE901C34023CDE90305F6
:1003E00001A8CDE90533CDE9072301F00DFB00B1EC
:1003F000FEE700F0BBF900B1FEE7BFF34F8FBFF39C
:100400006F8F214B5A6922F400325A61C3F85002AF
:10041000BFF34F8FBFF36F8FC3F88400BFF34F8FCD
:100420005A6922F480325A61BFF34F8FD3F880208B
:1004300043F6E076C2F3C904C2F34E32A507520177
:1004400002EA060C284621464CEA0007013900F171
:100450004040C3F874724F1CF6D1203A12F1200FBD
:10046000EED1BFF34F8FBFF36F8F0A4B00221A609C
:10047000094B0A4A1B6813604FF01042126882F35E
:1004800008889847FEE700BF00ED00E00004005830
:100490000048025810E000E00400009058040020DA
:1004A0007B4B2DE9F04FD3F8D42091B0794D09243E
:1004B00042F480420026784F0BA9C3F8D420284686
:1004C000D3F8D4204FF040084FF00A0BDFF8D0A14A
:1004D00002F480424FF400790092009ADA6F42F4FD
:1004E0008042DA67DA6F22F48042DA67D3F8E020DC
:1004F00042F02002C3F8E020D3F8E02002F020020E
:100500000192019AD3F8E02042F00802C3F8E020FB
:10051000D3F8E02002F008020292029AD3F8E02019
:1005200042F02002C3F8E020D3F8E02002F02002DD
:100530000392039AD3F8E02042F02002C3F8E020AF
:10054000D3F8E02002F020020492049AD3F8E020CD
:1005500042F02002C3F8E020D3F8E02002F02002AD
:100560000592059AD3F8E02042F04002C3F8E0205B
:10057000D3F8E02002F040020692069AD3F8E02079
:1005800042F08002C3F8E020D3F8E02002F08002BD
:100590000792079AD3F8E02042F08002C3F8E020E7
:1005A000D3F8E02002F080020892089AD3F8E02005
:1005B00042F04002C3F8E020D3F8E02002F040020D
:1005C0000992099AD3F8E02042F04002C3F8E020F3
:1005D0004FF48062D3F8E03003F040030A930A9BA3
:1005E0000223CDE90B230323CDE90D630F9400F023
:1005F000DBFA01230BA93846CDF82C800D93CDF8FA
:100600003CB000F0D1FA4FF400630BA923480B93E0
:100610000D960F9400F0C8FA04230BA950460F94CE
:100620000B9300F0C1FA0BA92846CDF82C90CDF819
:100630003CB000F0B9FA08230BA950460F940B9375
:1006400000F0B2FA80230BA928460F940B9300F018
:10065000ABFA0BA93846CDF82C9000F0A5FA0BA9FF
:100660002846CDF82C8000F09FFA4FF480430BA968
:1006700038460B9300F098FA32460F215C2000F0C8
:100680003DFA5C2000F06CFA11B0BDE8F08F00BFBD
:10069000004402580014025800180258000C025876
:1006A000001C025800B54FF4407395B04FF04072F3
:1006B00011480C9305230F920222069300230B92FC
:1006C00006A913930093049303926A46CDE90D3370
:1006D000CDE91133102302934FF48003059340F2C8
:1006E0000113019341F2883300F0D9FD003018BFA7
:1006F000012015B05DF804FB5C04002000B54FF448
:10070000407395B041F2883217480C93062306A92E
:1007100006930023CDE90D330F930B931393CDE98B
:10072000113300F0BCFCE8B940F2022302224FF47E
:10073000800104900C48CDE900331023CDE902324A
:1007400005236A46CDE905134FF0407306A90F93C0
:1007500041F2883300F0A3FD003018BF012015B02E
:100760005DF804FB0120FAE75C0400202DE9F0436A
:100770007D4C9DB07D4B2046236000F074FC074605
:1007800008B10124ECE0FFF78BFE01250323C4E947
:1007900001351023E3604FF0006393FAA3F3B3FA3B
:1007A00083F34FF440762046E761013B2361402309
:1007B000C4E90567236200F0F7FB0028E1D14FF49C
:1007C00080774FF06609099041F2883205906946BA
:1007D0000D900697CDF80090CDE90700CDE90B000C
:1007E000204600F05CFC0028CBD14FF0990841F284
:1007F000883269462046CDF8008000F050FC002881
:10080000BFD141F28832694620460696CDF8009065
:1008100000F045FC0028B4D141F2883269462046F8
:10082000CDF8008000F03BFC0028AAD135231790BA
:10083000139041F288321B900EA914970E93CDE9C4
:100840001500CDE91900204600F029FC002898D1B8
:10085000FFF728FF002894D1B723149617900E9322
:1008600013901B90CDE91500CDE91900FFF746FF65
:10087000002886D141F288320EA9204600F00FFCF4
:1008800000287FF47EAFFFF70DFF00287FF479AFDB
:1008900085234FF440764FF04075ADF800000E937D
:1008A0000223139041F288320EA914961795CDE9D0
:1008B0001500CDE91830CDE91A002B4800F0EFFB08
:1008C00000287FF45EAF41F288326946264800F086
:1008D00085FC00287FF455AFFFF710FF0446002881
:1008E0007FF44FAF812341F288320EA91E480E9348
:1008F000BDF8003023F0F0031B051B0D43F400434B
:1009000043F08003ADF8003000F0C9FB00287FF40D
:1009100038AF41F288326946134800F003FC0028E2
:100920007FF42FAFED236A460EA90F480E934FF4C4
:1009300040631B9415934FF4405314961193052371
:10094000CDE9164513934FF000454FF08043CDE9B4
:100950000044CDE9195300F0F7FC002818BF01242A
:1009600020461DB0BDE8F0835C040020005000521A
:100970007047FEE7FEE7FEE7FEE770477047704707
:1009800000F092B81849194810B5D1F8883043F4EE
:100990007003C1F88830164B1A6842F001021A60E1
:1009A00000221A611C68204018609A61DA611A629C
:1009B0009A62DA621A635A639A63DA631A645A644F
:1009C000186820F4802018601A660A4B1B681B0CFC
:1009D0001B04B3F1005F02D2074B01221A604FF0F3
:1009E00000638B6010BD00BF00ED00E07FEDF6EA14
:1009F000004402580010005C08810051704700005C
:100A000038B50F4B0546187808B9012038BD4FF4AA
:100A10007A730C4AB3FBF0F31068B0FBF3F000F00C
:100A2000ADF804460028F0D10F2DEED80246294635
:100A30004FF0FF3000F062F8034B20461D60E5E701
:100A400008000020000000200C00002010B503204A
:100A500000F042F800F03CFF0F49104A8B69C3F3E5
:100A60000323D35C03F01F03D8400D4B18608B6940
:100A700003F00F03D35C03F01F03D840094B186049
:100A80000F20FFF7BDFF044618B9FFF7B7FF204658
:100A900010BD0124FBE700BF00440258201E0008DF
:100AA0000000002004000020034A044B11681B785A
:100AB0000B441360704700BFA8040020080000200A
:100AC000014B1868704700BFA8040020014B18684C
:100AD000000C70470010005C074A0002D36800F465
:100AE000E06023F4E0631B041B0C43F0BF6343F49A
:100AF00000330343D360704700ED00E0164B70B540
:100B0000DC684FF0FF36C4F30224C4F10705231D4F
:100B1000042D28BF0425062B06FA05F38CBF033CE1
:100B20000024002821EA030303FA04F306FA04F47C
:100B300022EA040443EA04034FEA0313DBB206DBB0
:100B400000F1604000F5614080F8003370BD00F0B6
:100B50000F00024A1354F9E700ED00E014ED00E045
:100B6000002808DB4209012300F01F0003FA00F00F
:100B7000014B43F82200704700E100E00138B0F17A
:100B8000807F0AD2064BF021064A5860002082F886
:100B90002310072298601A6070470120704700BF39
:100BA00010E000E000ED00E04FF0B04C00232DE934
:100BB000F74F724EE246DFF8D0B10A6832FA03F41A
:100BC00002D103B0BDE8F08F4FF0010E0EFA03FE24
:100BD0001EEA020200F0BD804C6824F01004022CD2
:100BE00014D14FEAD30803F007090F2500EB88085A
:100BF0004FEA8909D8F8204005FA09F524EA0505E5
:100C00000C6904FA09F42C43C8F820404FEA430861
:100C10004FF003094C6809FA08F9056804F0030469
:100C20006FEA090904FA08F409EA05052C4304608F
:100C30004D6825F01005013D012D11D88468CD685F
:100C400009EA040405FA08F525438560446824EAA6
:100C50000E0E4C68C4F300149C4044EA0E04446039
:100C6000C46809EA04098C6804FA08F444EA09042F
:100C7000C4604C68E4006CD5414D03F0030E4FF0A6
:100C80000F08D5F8F4404FEA8E0E44F00204C5F880
:100C9000F440D5F8F44023F0030505F1B04504F025
:100CA000020405F580650194019C08FA0EF4D5F85C
:100CB000089029EA0408334CA0424CD004F5806423
:100CC000A0424AD004F58064A04248D0584548D09C
:100CD00004F50064A04246D004F58064A04244D0EC
:100CE00004F58064A04242D004F58064A04240D064
:100CF00004F58064A0423ED004F58064A0420CBF9D
:100D000009240A2404FA0EF444EA0804AC60D5432A
:100D10004F683468FF034CBF14432C4034604F6865
:100D20007468BF034CBF14432C4074604F68DCF8F8
:100D30000040FF024CBF14432C40CAF800404F68EB
:100D4000DAF80440BF0254BF05EA04022243CCF89B
:100D50000420013331E70024D4E70124D2E7022440
:100D6000D0E70324CEE70424CCE70524CAE7062411
:100D7000C8E70724C6E70824C4E700BF800000587E
:100D80000044025800000258000C025838B5104CBC
:100D9000E36813F0040FE36805D103F00703181AA2
:100DA00018BF012038BD23F007031843E060FFF7A8
:100DB00087FE054663689B0401D50020F2E7FFF734
:100DC0007FFE401BB0F57A7FF4D90120EAE700BF2F
:100DD000004802584B6A2DE9F04733B1B2F1406F39
:100DE00003D08B6A0468013B23618B690C6A002B7A
:100DF00067D00568002C35D08B68EB61CC694B6AF5
:100E000005688F69D1F820C0D1F83480D1F810E09E
:100E10000E68D1E90BA9A4B144EA0A04144344EAD8
:100E2000090444EA08042343CC6843EA0E0343EA76
:100E30000C0323433B434C69334343EA84436B61D4
:100E40002AE04AEA0904144344EA0804234343EA33
:100E50000E0343EA0C033B4333434E6943EA8646A1
:100E60006E612CE04E69CC69D1F80090B604D1F8DF
:100E700024804F6BD1E90BECACB11C43CB6814431D
:100E800044EA090444EA080444EA0E0444EA0C046F
:100E90003C431C4334436C61B2F1406F0FD0036894
:100EA0004A689A610BE043EA0903134343EA0803E3
:100EB00043EA0E0343EA0C033B4333436B61BDE853
:100EC000F08744B303688C68DC61CC69D1F8248076
:100ED00005688E69D1F820C04B6BD1F810E0D1E9DC
:100EE0000B796CB13C43144344EA09042343CC68B6
:100EF00043EA080343EA0E0343EA0C0323439AE759
:100F000047EA09042243134343EA080343EA0E0372
:100F100043EA0C03A0E7CD694B6A7DB12B43CD6A50
:100F2000046813432B430D6B2B434D6B2B43CD6850
:100F30002B434D6943EA85436361ADE7002BBED087
:100F4000CC6A0068234313430A6B13434A6B134371
:100F50004A6943EA82434361B1E72DE9F041069DC6
:100F600004460F461646984621688A683A4214BFDE
:100F700001220022B24201D1002011E06B1CF4D00A
:100F8000FFF79EFDA0EB0800A84201D8002DEBD191
:100F90000423012084F84130636C43F0010363644F
:100FA000BDE8F0817047000037B50446FFF788FDC3
:100FB0000546002C4FD094F84030012B4DD0012332
:100FC00084F8403094F8412002F0FF033AB984F8E5
:100FD00040302046FFF7E6FF41F28833A3642068E3
:100FE000A1680268013922F4706242EA01222021DC
:100FF00002600022A36C204600932B46FFF7ADFF52
:1010000020BB2168E569E3680A682B43256A22F062
:101010007F422B43656822F0D00243EA0563134305
:101020000B602168D4E905324D681343226943EA15
:1010300002430B4A2A4013434B602268136843F073
:10104000010313600123606484F84130002384F8B5
:10105000403003B030BD0120FBE70220F9E700BFBC
:10106000FEF8E0FF704710B50446A0B190F840309C
:10107000012B12D00268012380F84030136823F05E
:1010800001031360FFF7EEFF0020606484F8410065
:1010900084F8400010BD0120FCE70220FAE72DE9AA
:1010A000F34704468A469146FFF70AFD94F840301C
:1010B0008046012B34D00123022784F8403094F875
:1010C0004160F6B29E4229D100220346CDF800903D
:1010D00020216264204684F84170FFF73EFF0546F8
:1010E000A8B9024651462046FFF774FEDAF82430CC
:1010F0005BB9CDF800904346324639462046FFF7AB
:101100002CFF054618B92368DF6084F8416000238E
:1011100084F84030284602B0BDE8F0873D46F6E747
:101120000225F7E72DE9F341044688461746FFF705
:10113000C7FC94F840300646012B4DD001232568AA
:1011400084F8403094F84100C0B2984242D1002364
:101150006364B8F1000F38D0122384F841302B6952
:101160000133E3622B69C4F824800133A3626B6905
:1011700023F040636B61E36A9BB900973346012219
:1011800002212046FFF7E9FE10B923680222DA6047
:10119000012384F84130002384F8403002B0BDE8D8
:1011A000F08100973346012204212046FFF7D5FE47
:1011B0000028EDD1636A1B7885F82030636A01331B
:1011C0006362E36A013BE362D5E7636C43F00803C3
:1011D0006364E0E70220DEE70220DFE72DE9F34168
:1011E000044617468846FFF76BFC25680646AA6941
:1011F00094F84030012B50D0012384F8403094F80B
:101200004100C0B2984246D100236364B8F1000F98
:101210003CD0222384F841302B690133A3632B692E
:10122000C4F83080013363636B6923F0406343F09B
:1012300080636B6123689A61A36B9BB90097334607
:10124000012202212046FFF788FE10B923680222FE
:10125000DA60012384F84130002384F8403002B082
:10126000BDE8F08100973346012206212046FFF7B2
:1012700074FE0028EDD195F82020236B1A70236BA3
:1012800001332363A36B013BA363D5E7636C43F096
:1012900008036364E0E70220DEE70220DFE72DE9D0
:1012A000F7430446984689461646FFF709FC94F82A
:1012B00040300746012B45D0012384F8403094F894
:1012C0004150EDB29D423BD142230022CDF8008037
:1012D0002021626484F8413003462046FFF73DFE3A
:1012E00040BB2368204632689A62236872685A625B
:1012F0002368B268DA62216833690A6843F48003BC
:1013000022F4400213434FF000620B604946F36839
:10131000C9F82830FFF75EFDCDF800803B462A462D
:1013200008212046FFF719FE20B923680822DA6059
:1013300084F84150002384F8403003B0BDE8F083C6
:101340000220F7E70220F8E7F7B5044617460E46F5
:10135000FFF7B6FB94F840200346012A36D001225D
:1013600084F8402094F84120012A2DD100228221C6
:101370002046626484F84110A16C00912021FFF79F
:10138000ECFD0546D0B922687968136823F008039C
:101390000B4313607B68082B0AD123683A681A63F1
:1013A00010222368DA602268136843F48013136004
:1013B0004FF0406231462046FFF70CFD002384F8D1
:1013C0004030284603B0F0BD0225F7E70225F8E7D4
:1013D000F8B5044608B9012090E00368DD075ED443
:1013E0002368980700F1AC802368DA0623D5AB4B5D
:1013F0001A69996A02F03802082A07D0182A40F0C0
:10140000008101F00302012A40F0FB801B68DB052C
:1014100002D5E369802BDED1FFF758FB41F20303CD
:101420009E4A9842216A00F2E580536823F0F8430F
:1014300043EA816353602368190700F11B81236825
:101440009A0600F1408123685D0722D5944D2B68F0
:1014500043F480732B60FFF733FB06462B68DA05F5
:1014600040F15681A2688D4B012A40F058811A6FD5
:1014700042F001021A67A368002B00F06781FFF7B2
:101480001FFB864D064641F288372B6F9B0740F1C4
:101490005681606A002840F0698100202EE07F4B71
:1014A0001A69996A02F03802102A05D0182A0AD15E
:1014B00001F00302022A06D11B68990390D56368E4
:1014C000002B8DD187E76268744BB2F5803F16D14F
:1014D0001A6842F480321A6063680BB3FFF7F0FABF
:1014E0006E4D064641F288372B689A033FF578AF78
:1014F000FFF7E6FA801BB842F6D90320F8BD3AB9E7
:101500001A6822F480321A601A6822F48022E2E714
:10151000B2F5A02F1A68F4D142F480221A60D7E7FE
:10152000FFF7CEFA5D4D064641F288372B689B03E4
:101530007FF556AFFFF7C4FA801BB842F6D9DCE757
:10154000564B1A69996A12F0380203D0182A1BD137
:101550008E0719D11B685D0703D5E368002B3FF4A4
:101560003AAFFFF7B3FA41F203034C4A98422169BC
:10157000536895BF23F47C3323F0FE4343EA0133E1
:1015800043EA016353602FE7444DE2682B680AB3D6
:1015900023F0190313432B60FFF792FA06462B68DA
:1015A000580711D5FFF792FA41F2030322699842D6
:1015B0006B6895BF23F47C3323F0FE4343EA023388
:1015C00043EA02636B600FE7FFF77AFA801B022899
:1015D000E5D992E723F001032B60FFF771FA064685
:1015E0002B6859077FF500AFFFF76AFA801B0228C6
:1015F000F6D982E7D36823F07C5343EA0163D360D2
:1016000019E7E369254D23B32B6843F080032B6072
:10161000FFF756FA06462B68DF050DD5FFF756FA99
:1016200041F20303226A98420CD86B6823F0F84316
:1016300043EA82636B60FEE6FFF742FA801B0228F2
:10164000E9D95AE7EB6823F07C5343EA0263EB6085
:10165000F1E62B6823F080032B60FFF731FA064692
:101660002B68D8057FF5E7AEFFF72AFA801B022822
:10167000F6D942E76369094DA3B16B6F43F00103EB
:101680006B67FFF71DFA06466B6F9B073FF5D7AEFA
:10169000FFF716FA801B0228F6D92EE700440258FD
:1016A000004802586B6F23F001036B67FFF708FADD
:1016B00006466B6F9F077FF5C2AEFFF701FA801BEE
:1016C0000228F6D919E7A369804D83B12B6843F44A
:1016D00080532B60FFF7F4F906462B6898043FF51A
:1016E000B2AEFFF7EDF9801B0228F6D905E72B68AB
:1016F00023F480532B60FFF7E3F906462B68990427
:101700007FF5A1AEFFF7DCF9801B0228F6D9F4E6DD
:10171000FFF7D6F9801B64287FF6A0AEEDE63AB954
:101720001A6F22F001021A671A6F22F00402A1E672
:10173000052A1A6FF5D142F004021A6797E6FFF7FF
:10174000BFF9801BB8427FF6A0AED6E6FFF7B8F926
:101750005E4D064641F288372B6F98077FF599AEAC
:10176000FFF7AEF9801BB842F6D9C6E6574D2B6994
:1017700003F03803182B7AD02B68022823F08073EB
:101780002B6067D1FFF79CF906462B6899015BD463
:10179000AB6AA26A23F47C7323F003031343E26A67
:1017A00043EA0213AB62636BA26B013B013A5B023B
:1017B00012049BB202F4FE021343226B013AC2F3FD
:1017C00008021343E26B013A120602F0FE42134391
:1017D0002B63EB6A23F00103EB626B6BA26C23F4C7
:1017E0007F4323F0F80343EAC2036B63EB6A226C86
:1017F00023F00C031343EB62EB6A626C23F00203E9
:10180000324C1343EB62EB6A43F48033EB62EB6AD6
:1018100043F40033EB62EB6A43F48023EB62EB6A40
:1018200043F00103EB622B6843F080732B60FFF7FA
:1018300047F9054623689A013FF52FAEFFF740F9B7
:10184000401B0228F6D958E6FFF73AF9801B022818
:101850009BD952E6FFF734F904462B689B017FF5CC
:101860001CAEFFF72DF9001B0228F6D945E601282A
:10187000AA6A2B6B3FF442AE02F00301A06A8142D8
:101880007FF4A9ADC2F30512E16A8A427FF4A3ADE9
:10189000226BC3F30801013A91427FF49CAD626B65
:1018A000C3F34621013A91427FF495ADA26BC3F395
:1018B0000641013A91427FF48EADE06BC3F30663BB
:1018C0000138181A18BF012018E600BF004402585A
:1018D000464B10B51A6902F03802102A00F08480D5
:1018E000182A0CD00AB1424810BD1A68414812F0BB
:1018F000200FF9D01B68C3F3C103D840F4E7996AFD
:10190000986ADA6AC0F305105C6B0028ECD007EE29
:10191000900A02F00102C4F3CC00B7EE006AF8EEC0
:10192000E76A424307EE902A01F00302012AFAEE29
:10193000E97A02D00FD3022A48D01B6BC3F3080305
:1019400007EE103AB8EEC77A77EE277A77EE867A06
:101950009FED296A37E01A68920627D51968254A4B
:10196000C1F3C1011B6BCA40C3F3080307EE102A81
:10197000F8EEC75A85EEA67A06EE903AF8EEE66AD9
:1019800076EEA77A77EE867A184B67EE877A1B6B2E
:10199000C3F34623013307EE103AF8EEC76A87EE29
:1019A000A67AFCEEC77A17EE900A9DE71B6BC3F38D
:1019B000080307EE103AB8EEC77A77EE277A77EE8B
:1019C000867A9FED0E6A86EE267ADDE71B6BC3F3FF
:1019D000080307EE103AB8EEC77A77EE277A77EE6B
:1019E000867A9FED076AEEE706487DE700440258D5
:1019F00000093D000090D0030024744A0024744C78
:101A000020BCBE4B40787D012DE9F0410D460446D7
:101A100010B90120BDE8F081884A136803F00F0374
:101A20008B42C0F0928023685E0700F19A802368A1
:101A300018070BD5824A6069D16901F070018842AC
:101A400004D9D36923F070030343D3612368D90613
:101A50000BD57B4AA069D16901F4E061884204D9C1
:101A6000D36923F4E0630343D36123689A060BD55B
:101A7000734AE069116A01F07001884204D9136A5F
:101A800023F070030343136223689B070BD56C4A52
:101A9000E068916901F00F01884204D9936923F04D
:101AA0000F03034393612368DF0768D423689E070D
:101AB00000F19B80614A136803F00F03AB4200F210
:101AC000A2802368580700F1AA80236819070BD564
:101AD0005B4A6069D16901F07001884204D2D36920
:101AE00023F070030343D3612368DA060BD5544A0D
:101AF000A069D16901F4E061884204D2D36923F47A
:101B0000E0630343D36123689B060BD54C4AE0692D
:101B1000116A01F07001884204D2136A23F0700345
:101B200003431362FFF7D4FE454B464A9B69C3F358
:101B30000323D35C03F01F03D840434B1860434B8F
:101B4000BDE8F0411868FEF75BBF136823F00F0390
:101B50000B431360136803F00F038B427FF459AFFC
:101B600061E7374A2069916901F0700188427FF688
:101B70005EAF936923F070030343936157E7304BE3
:101B8000A1689A6922F470620A439A6161681A68CE
:101B900002291DD112F4003F3FF43BAF1A6941F214
:101BA0008838274E22F007020A431A61FEF788FFA1
:101BB00007463369626803F03803B3EBC20F3FF4A2
:101BC00075AFFEF77DFFC01B4045F2D9032021E72A
:101BD000032902D112F0007FDEE7012902D112F4BD
:101BE000807FD9E712F0040FD6E7154AE0689169C3
:101BF00001F00F018842BFF45DAF936923F00F033A
:101C00000343936156E7136823F00F032B431360DC
:101C1000136803F00F03AB427FF4FBAE51E7084AB1
:101C20002069916901F070018842BFF44EAF936959
:101C300023F070030343936147E700BF0020005285
:101C400000440258201E0008000000200C00002064
:101C5000DFF834D0002103E00C4B5B5843500431D3
:101C60000B480C4B42189A42F6D30B4A02E0002371
:101C700042F8043B094B9A42F9D3FEF783FE00F089
:101C800011F8FEF729FB704700000220401E0008F3
:101C9000000000203C0400203C040020D004002070
:101CA000FEE7000070B50D4E0D4D761BB61006D048
:101CB0000024013455F8043B9847A642F9D1094E57
:101CC000094D761B00F0A0F8B61006D000240134B0
:101CD00055F8043B9847A642F9D170BD341E000860
:101CE000341E00083C1E0008341E0008024B13B1CD
:101CF000024800F005B87047000000000D1D000804
:101D0000002301461A46184600F01EB838B50A4CA2
:101D10000A4D641BA4100AD004F18043013B05EB7B
:101D20008305013C55F804399847002CF9D1BDE8EA
:101D3000384000F06FB800BF401E00083C1E00088D
:101D4000704700BF704700BF2DE9F8432B4D064692
:101D5000286898460F469146FFF7F2FF284B1C680B
:101D6000D4F84831002B3DD05A681F2A0DDC02F10F
:101D7000010C16BB0232C3F804C0286843F8227075
:101D8000FFF7E0FF0020BDE8F8831E4B7BB34FF464
:101D9000C870AFF30080034648B3D4F8482100214F
:101DA000C0E900214FF0010CC4F848010A46C0F810
:101DB0008811C0F88C11002EDCD003EB82010124C5
:101DC000C1F88890D3F8880194402043022EC3F8CC
:101DD0008801C1F80881CDD1D3F88C110C43C3F828
:101DE0008C41C7E704F5A673C4F84831BCE72868FE
:101DF000FFF7A8FF4FF0FF30C5E700BF3804002011
:101E0000301E000800000000F8B500BFF8BC08BC98
:101E10009E467047F8B500BFF8BC08BC9E467047A8
:101E20000000000001020304010203040607080980
:101E300010000020ED1C0008BD02000899020008F7
:101E40000090D0030090D0030100000010000000BB
:101E500000000000FC02002064030020CC030020EE
:101E60000000000000000000000000000000000072
:101E70000000000000000000000000000000000062
:101E80000000000000000000000000000000000052
:101E90000000000000000000000000000000000042
:101EA0000000000000000000000000000000000032
:101EB0000000000000000000000000000000000022
:101EC0000000000000000000000000000000000012
:101ED0000000000000000000000000000000000002
:101EE00000000000000000000000000000000000F2
:101EF00000000000000000000100000000000000E1
:101F00000E33CDAB34126DE6ECDE05000B000000A5
:101F100000000000000000000000000000000000C1
:101F200000000000000000000000000000000000B1
:101F300000000000000000000000000000000000A1
:101F40000000000000000000000000000000000091
:0C2270000000000000000000AC04002092
:0200000490006A
:1000000000000824C50A0090915300909553009079
:10001000995300909D530090A15300900000000060
:10002000000000000000000000000000A10401909A
:10003000A55300900000000031050190F1FC0090F4
:10004000150B0090150B0090150B0090150B0090F0
:10005000150B0090150B0090150B0090150B0090E0
:10006000150B0090150B0090150B0090150B0090D0
:10007000150B0090150B0090150B0090150B0090C0
:10008000150B0090150B0090150B0090150B0090B0
:10009000150B0090150B0090150B0090150B0090A0
:1000A000150B0090150B0090150B0090150B009090
:1000B000150B0090150B0090150B0090150B009080
:1000C000150B0090150B0090150B0090150B009070
:1000D000150B0090150B0090150B0090150B009060
:1000E000150B0090150B009000000000150B009000
:1000F000150B0090150B0090150B0090150B009040
:10010000150B0090150B0090150B0090150B00902F
:10011000150B0090150B0090A9530090150B009043
:10012000150B0090150B0090150B0090150B00900F
:10013000150B0090150B0090150B0090150B0090FF
:1001400000000000000000000000000000000000AF
:10015000150B0090150B0090150B0090150B0090DF
:10016000150B0090150B0090150B0090150B0090CF
:10017000150B0090150B0090150B0090150B0090BF
:10018000150B0090150B0090150B0090150B0090AF
:10019000150B0090150B0090150B0090150B00909F
:1001A000B5530090150B0090C1530090150B0090B3
:1001B000150B0090150B0090150B0090CD5300907F
:1001C000D9530090150B0090150B0090150B009063
:1001D000150B0090150B0090150B0090150B00905F
:1001E000150B0090150B0090150B0090150B00904F
:1001F000150B0090150B0090150B0090150B00903F
:10020000150B0090150B0090150B0090150B00902E
:10021000150B0090150B0090150B0090150B00901E
:10022000150B0090E5530090F15300900000000082
:10023000150B0090150B009000000000150B0090AE
:100240000D540090115400901D540090150B009017
:10025000150B0090150B0090150B0090150B0090DE
:10026000150B0090150B0090150B0090150B0090CE
:10027000150B0090150B0090150B0090000000006E
:10028000150B0090150B0090150B0090000000005E
:0802900000000000150B0090B6
:1002A00010B5054C237833B9044B13B10448AFF3B0
:1002B00000800123237010BD805D00240000000039
:1002C00054D5029008B5034B1BB103490348AFF363
:1002D000008008BD00000000845D002454D5029019
:1002E00001F0FF01102A2BDB10F0070F08D010F8E7
:1002F000013B013A8B422DD010F0070F42B3F6D1EB
:10030000F0B441EA012141EA014122F007047FF003
:1003100000070023F0E80256083C85EA010586EA5A
:10032000010685FA47F5A3FA87F586FA47F6A5FA96
:1003300087F68EB9EED1F0BC01F0FF0102F00702A2
:1003400032B110F8013B013A83EA010313B1F8D14D
:100350000020704701387047002D06BF354603382E
:10036000073815F0010F07D1013015F4807F02BF67
:10037000013015F4C03F0130F0BC0138704700BFB8
:1003800081F0004102E000BF83F0004330B54FEA46
:1003900041044FEA430594EA050F08BF90EA020FB3
:1003A0001FBF54EA000C55EA020C7FEA645C7FEA46
:1003B000655C00F0E2804FEA5454D4EB5555B8BF69
:1003C0006D420CDD2C4480EA020281EA030382EADA
:1003D000000083EA010180EA020281EA0303362D6C
:1003E00088BF30BD11F0004F4FEA01314FF4801C3F
:1003F0004CEA113102D0404261EB410113F0004F51
:100400004FEA03334CEA133302D0524263EB430307
:1004100094EA050F00F0A780A4F10104D5F1200EA5
:100420000DDB02FA0EFC22FA05F2801841F1000100
:1004300003FA0EF2801843FA05F359410EE0A5F1D4
:1004400020050EF1200E012A03FA0EFC28BF4CF005
:10045000020C43FA05F3C01851EBE37101F00045BB
:1004600007D54FF0000EDCF1000C7EEB00006EEBC8
:100470000101B1F5801F1BD3B1F5001F0CD3490852
:100480005FEA30004FEA3C0C04F101044FEA4452A9
:1004900012F5800F80F09A80BCF1004F08BF5FEA30
:1004A000500C50F1000041EB045141EA050130BD10
:1004B0005FEA4C0C404141EB0101013C28BFB1F522
:1004C000801FE9D291F0000F04BF01460020B1FA6D
:1004D00081F308BF2033A3F10B03B3F120020CDA40
:1004E0000C3208DD02F1140CC2F10C0201FA0CF01E
:1004F00021FA02F10CE002F11402D8BFC2F1200C83
:1005000001FA02F120FA0CFCDCBF41EA0C01904038
:10051000E41AA2BF01EB0451294330BD6FEA040481
:100520001F3C1CDA0C340EDC04F11404C4F120026C
:1005300020FA04F001FA02F340EA030021FA04F37E
:1005400045EA030130BDC4F10C04C4F1200220FAD5
:1005500002F001FA04F340EA0300294630BD21FA13
:1005600004F0294630BD94F0000F83F4801306BFD9
:1005700081F480110134013D4EE77FEA645C18BFCD
:100580007FEA655C29D094EA050F08BF90EA020F64
:1005900005D054EA000C04BF1946104630BD91EA5C
:1005A000030F1EBF0021002030BD5FEA545C05D15F
:1005B0004000494128BF41F0004130BD14F580049E
:1005C0003CBF01F5801130BD01F0004545F0FE4112
:1005D00041F470014FF0000030BD7FEA645C1ABF47
:1005E000194610467FEA655C1CBF0B46024650EA7E
:1005F000013406BF52EA033591EA030F41F40021AA
:1006000030BD00BF90F0000F04BF0021704730B52F
:100610004FF4806404F132044FF000054FF0000104
:1006200050E700BF90F0000F04BF0021704730B5C5
:100630004FF4806404F1320410F0004548BF40429A
:100640004FF000013EE700BF42004FEAE2014FEAEF
:1006500031014FEA02701FBF12F07F4393F07F4FCA
:1006600081F06051704732F07F4208BF704793F0CD
:100670007F4F04BF41F40021704730B54FF46074E0
:1006800001F0004521F000411CE700BF50EA0102E3
:1006900008BF704730B54FF000050AE050EA01028C
:1006A00008BF704730B511F0004502D5404261EBFC
:1006B00041014FF4806404F132045FEA915C3FF43D
:1006C000D8AE4FF003025FEADC0C18BF03325FEADA
:1006D000DC0C18BF033202EBDC02C2F1200300FA8B
:1006E00003FC20FA02F001FA03FE40EA0E0021FAB0
:1006F00002F11444BDE600BF7BB972B90029BEBF48
:1007000000204FF0004106E008BF00281CBF6FF03A
:1007100000414FF0FF3000F0D3B9ADF1080C6DE9A6
:1007200004CE002909DB002B1ADB00F04DF8DDF8C0
:1007300004E0DDE9022304B07047404261EB41016F
:10074000002B1BDB00F040F8DDF804E0DDE90223BC
:1007500004B0404261EB4101524263EB43037047F6
:10076000524263EB430300F02FF8DDF804E0DDE9CB
:10077000022304B0404261EB41017047524263EBF7
:10078000430300F021F8DDF804E0DDE9022304B0C2
:10079000524263EB4303704753B94AB9002908BF7B
:1007A00000281CBF4FF0FF314FF0FF3000F088B938
:1007B000ADF1080C6DE904CE00F006F8DDF804E0B8
:1007C000DDE9022304B070472DE9F047089D8E460D
:1007D00004468846002B4AD18A42174662D9B2FAAB
:1007E00082F64EB1C6F1200301FA06F820FA03F3AF
:1007F000B74043EA0808B4404FEA174E1FFA87FC97
:10080000B8FBFEF1230C0EFB118843EA084301FB01
:100810000CF29A4209D9FB1801F1FF3080F0EA800E
:100820009A4240F2E78002393B449A1AA3B2B2FBE3
:10083000FEF00EFB102243EA024300FB0CFC9C4539
:1008400009D9FB1800F1FF3280F0D6809C4540F2B8
:10085000D3803B44023840EA0140A3EB0C03002163
:100860001DB1F3400022C5E90032BDE8F0878B429C
:1008700005D90DB1C5E9000100210846F5E7B3FA35
:1008800083F1002946D1734502D3824200F20581EB
:10089000841A6EEB030201209046002DE5D0C5E9D5
:1008A0000048E2E7002A00F09080B2FA82F6002EBB
:1008B00040F0A4808A1A030C4FEA174E80B2BCB2F3
:1008C0000121B2FBFEFC0EFB1C2243EA024304FBA7
:1008D0000CF29A4207D9FB180CF1FF3802D29A4267
:1008E00000F2E080C4469B1AB3FBFEF20EFB12330B
:1008F00040EA034302FB04F49C4207D9FB1802F1CF
:10090000FF3002D29C4200F2CA8002461B1B42EA20
:100910000C40A5E7C1F120068B4022FA06F71F43E1
:100920000EFA01F420FA06F32EFA06FE4FEA1749F2
:10093000234300FA01F81FFA87FCBEFBF9F01C0CF8
:1009400009FB10EE44EA0E4400FB0CFEA64502FA39
:1009500001F209D93C1900F1FF3A80F09C80A645CC
:1009600040F2998002383C44A4EB0E041FFA83FE47
:10097000B4FBF9F309FB13444EEA044403FB0CFCFB
:10098000A44508D93C1903F1FF3E80F08280A445BC
:100990007FD9023B3C4443EA0040A4EB0C04A0FB9B
:1009A00002EC64457346E14662D35FD05DB1B8EBBB
:1009B000030264EB090404FA06F622FA01F31E436B
:1009C000CC40C5E9006400214FE7B1FBF2FC010C0B
:1009D00041EA0E4180B240EA01423B4638463C467D
:1009E000B846BE462026B1FBF7F1A2EB080241EA69
:1009F0000C4166E7014618E710462CE7C6F12002D5
:100A00002EFA02F3B740B14020FA02F24FEA174E35
:100A10000A43B3FBFEF8BCB20EFB1833110C41EADB
:100A2000034108FB04F9B04089454FEA104380B206
:100A30003ED9791808F1FF3C01D289451FD8A1EBB6
:100A40000901B1FBFEF909FB04F80EFB191192B282
:100A500042EA0142424529D2BA1809F1FF31C4D213
:100A60004245C2D2A9F102013A44BEE7F0459DD207
:100A7000BEEB02036CEB070C0138E14696E7A7EBEF
:100A800009094944A8F1020CB1FBFEF909FB04F87D
:100A9000DBE773467FE7504666E70846FDE63B44E2
:100AA000023A33E7ACF1020C3B441CE749469CE7B1
:100AB000A1EB0901C446B1FBFEF909FB04F8C4E748
:100AC000704700BFDFF834D0002103E00C4B5B58C7
:100AD000435004310B480C4B42189A42F6D30B4A50
:100AE00002E0002342F8043B094B9A42F9D307F095
:100AF00085FA2CF055F803F021F87047000008241F
:100B0000D40C03900000002468010024805D0024C0
:100B1000942B0224FEE70000704700BF704700BF1F
:100B200008B502F015F9BDE8084002F093B800BF1F
:100B300002F010B940687047416070474FF0E02004
:100B4000084B094AD0F8FC1D41F08071C0F8FC1D2B
:100B5000D3F8B01F0A43C3F8B02F1A6842F001025D
:100B60001A607047001000E055CEACC5521A02EB77
:100B70005302B2FBF3F07047014B5868704700BF57
:100B8000001000E0704700BF10B504460C212AF0A9
:100B9000A1FF204610BD00BF03680C4A1B6910B5B9
:100BA000044649B193420DD1094B5868A268636865
:100BB0009B1A0344636010BD934205D1044B5868EF
:100BC000A06010BD9847F1E79847F9E7790B0090CE
:100BD000001000E0704700BF00B585B00822002378
:100BE000002069469FED067BCDE902238DED007B59
:100BF00007F016F905B05DF804FB00BFAFF3008005
:100C0000E00100001001000030B585B000200D4665
:100C1000144601A90190CDE9020007F08FF901986F
:100C200020B10120DDE902232A60236005B030BD38
:100C300010B5044604212AF04DFF204610BD00BF28
:100C40000821104808B508F0E3FF012801D10E4B38
:100C5000186080210D4808F0DBFF012801D10A4B04
:100C600058604021094808F0D3FF012801D1064B04
:100C700098604021064808F0CBFF012801D1024BC3
:100C8000D86008BD001802589C5D0024000402587A
:100C900000000258032827D8DFE800F01D140B02DB
:100CA000124B40211248DA68B2FA82F2520908F077
:100CB000B5BF0E4B40210F489A68B2FA82F2520932
:100CC00008F0ACBF094B80210A485A68B2FA82F298
:100CD000520908F0A3BF054B082107481A68B2FA69
:100CE00082F2520908F09ABF704700BF9C5D002451
:100CF000000002580004025800180258032827D8A0
:100D0000DFE800F01D140B02124B40211248DA6894
:100D1000003A18BF012208F081BF0E4B40210F4856
:100D20009A68003A18BF012208F078BF094B802169
:100D30000A485A68003A18BF012208F06FBF054BF5
:100D4000082107481A68003A18BF012208F066BF58
:100D5000704700BF9C5D0024000002580004025848
:100D600000180258032813D8DFE800F00E0A060224
:100D70004021084808F056BF4021074808F052BFFC
:100D80008021054808F04EBF0821044808F04ABFFA
:100D9000704700BF000002580004025800180258B3
:100DA00000207047012380F8781080F87930704770
:100DB000704700BF002070470A1E034B416418BFF4
:100DC00001221A70704700BF531E0224704700BFF3
:100DD00000207047836B084603B11847704700BF77
:100DE0004FF6FF70704700BF704700BF704700BFED
:100DF000704700BF10B5044612F0F4FE2368204689
:100E0000D3F8BC30BDE81040184700BF02F0C6B8A8
:100E100002F0CAB810B502F061F912480023C0F818
:100E20008430BFF34F8FD0F8803043F6E074C3F3C3
:100E30004E3CC3F3C90E4FEA4C1C0CEA0401734646
:100E400041EA8372013BC0F874225A1CF8D1ACF11C
:100E5000200C1CF1200FF0D1BFF34F8FBFF36F8F29
:100E600010BD00BF00ED00E002F074B802F0BAB9A6
:100E700002F0A4B902F078B808B5094B1B888B4280
:100E800008D8084B1B88934204D80748074B0180B9
:100E90001A8008BD064BA321064A07482BF090F99B
:100EA000481E02244A1E02244E1E0224501E022402
:100EB000F0D5029054D6029098D6029012F0DEB986
:100EC00012F0A4B810B5044690212AF003FE204683
:100ED00010BD00BF90F878C090F834100B4B8C45D3
:100EE0001A780BD04AB90A4A4FF0010C0949108808
:100EF00083F800C00B88088013807047002AFCD05C
:100F0000034A4FF0000C0349F1E700BF4C1E0224D6
:100F10004A1E0224481E0224034690F87A0018B1A3
:100F2000586803681B681847704700BF4068044A48
:100F300003689B69934201D100207047184700BFA6
:100F4000A10D009038B5044602F0CEFA0B4A236892
:100F50000B49D3F8903093420DD10A4B01226164C2
:100F60001A7004F184052846FFF7E8FD0123256186
:100F700084F8703038BD20469847F2E7B90D0090EC
:100F8000000000D0531E0224A9B10264003AC163DC
:100F900018BF01220C490A7002680C49D2F890204F
:100FA0008A4206D1191E0A4A436418BF01211170F2
:100FB000704719461047074B40F2FF21064A074881
:100FC00010B52BF0FDF800BF521E0224B90D0090A1
:100FD000531E0224E0D6029018D7029098D60290B1
:100FE00008B503680446144DD3F884309847236845
:100FF0002046DB6F984701F0F1F9236820465B6FCC
:101000009847012280210D4808F008FE01220C4873
:10101000114608F003FE01F0E1F9236820465B6FFA
:10102000AB4207D112F0DEFD23682046D3F8BC3076
:101030009847F0E79847EEE7F50D0090000C02584E
:1010400000280258014608B5054B186821B1012156
:1010500012F0E2FD012008BD12F0DEFD012008BD06
:10106000541E02244069704790F84000704700BF4A
:10107000036B0BB101207047C06A003818BF012014
:10108000704700BF80687047704700BF04308C46CF
:101090000FC88CE80F007047704700BF08B5034ABF
:1010A0004FF4FC71024B03482BF08AF86CD7029086
:1010B00068D70290C8D7029010B5044648212AF09C
:1010C00009FD204610BD00BFF8B503680129304D69
:1010D0000446DB6A38BF0121AB420E463FD185682A
:1010E000A94247D96B1EE269206B02EB031738B3A4
:1010F000A36B0F2B40D9036807F10806DB68314664
:101100009847206B1022616B03681B69984798B160
:10111000236BE663A3B1626B937A517A1B0443EAB3
:101120000123117AD27A0B4343EA0263226A656192
:10113000043A1A44A261F8BD0D2384F84030E7E771
:1011400007F11003E16ACA18C95C50789378D27825
:101150001B0443EA00230B4343EA0263E6E7984794
:10116000864207D92368DB6AAB420ED020469847F7
:101170000546B7E73546B5E70920064B064AB121D3
:1011800084F8400005482BF01BF8A568AAE700BFCB
:101190008510009034D8029048D80290C8D70290A9
:1011A00043692DE9F047002B00F0C1800546006B34
:1011B000AC69002800F0A180AB6B072B40F2AC803B
:1011C00003682146DB689847286B0822696B03682F
:1011D0001B699847002800F08C80AB69286B1A1DAA
:1011E000EC63002800F08B80121B6C6BA118A25CD2
:1011F0008C784E78240444EA06241443CA7844EADE
:1012000002640D2743F230063AE0AB6B072B40F245
:10121000838003682146DB689847286B0822696B46
:1012200003681B69984708B985F84070286BAB695B
:10123000EC63002879D01B1B696BCA18CB5C9479CE
:1012400092F805A0240492F804C092F8019044EAB0
:101250000A24D17992F8038043EA092392F802E044
:1012600044EA0C044EEA082244EA016446F264317E
:10127000B34208BF8A420CBF0123002336D0AB69BA
:101280001C44AB6A04F108029A422AD26B69093401
:10129000013324F00104C5E905340028B5D1E96A19
:1012A000A21C04F1040E01EB040C0B5D9CF8014040
:1012B00001EB0E0C43EA04238C188A5C647811F865
:1012C0000EE042EA04229CF801809CF802409CF85F
:1012D0000310240444EA082444EA0E0444EA0164A6
:1012E000C4E701212A6A0023C5E905121846BDE8B2
:1012F000F0870D2385F840306FE7221D2346EC6A06
:10130000A118A65C4F788C78CA78240444EA072494
:10131000344344EA026474E70920084B084AB121C7
:1013200085F8400007482AF04BFF1C46B7E7064BFC
:10133000F721064A03482AF043FF00BF34D8029041
:1013400048D80290C8D702908CD80290D8D8029082
:1013500010B5002204460E4B01201146E2632360C3
:1013600084F84020C4E90522C4E90722C4E909221F
:10137000C4E90B22C4E90D22C4E90322C4E9012215
:101380000EF042FD034B024620461A6010BD00BF1E
:1013900048F30290F45D00242DE9F84F0021066B1C
:1013A0000546816180F84010002E00F0B381836B08
:1013B000472B40F2708233683046DB689847286BD1
:1013C0004822696B03681B699847002800F0B780C2
:1013D00000232E6BAF69B246EB63002E00F09B81B9
:1013E000D5F834900422C34909EB070420462BF0BA
:1013F00025FB002840F05F8207F108000422BE4967
:10140000A86148442BF01AFB002840F0688207F1DD
:101410000C0B0422B94909EB0B00C5F818B02BF0EE
:101420000DFB8046002840F05082A37C627C1B04A8
:1014300043EA0223227C1343E27C53EA026400F075
:10144000338207F114000422AD4948442BF0F6FA28
:10145000002878D0062307F1180085F8403048446A
:101460005C440422A74908342BF0E8FA002800F075
:10147000E680072385F84030BAF1000F00F0908134
:10148000AB6B0B2B40F20782DAF800302146504656
:10149000DB689847286B0C22696B03681B699847C7
:1014A000002800F0218195F840A02E6BEC63DFF856
:1014B0005C824FF00D0903E095F840A02E6BEC63C1
:1014C00004F10807002E52D0EB6B0422686B4146F2
:1014D000FB1A18442BF0B2FA002851D0BAF1000FD1
:1014E00040F0A880AB6AA3424DD9043486B3EA6BBE
:1014F000D5E90D13A41A0B2B01EB0402095D9478B6
:1015000050784FEA0444D27844EA002444EA0104C3
:1015100044EA02643C4440F2BE81336821463046CE
:10152000DB689847286B0C22696B03681B69984736
:101530000028C1D14FF00D0A85F84090BEE70D2379
:1015400085F8403044E707F118004FF0010886E7BE
:10155000EA6A1319125D59789C78DB78240444EA0E
:101560000124144344EA03643C4404F10807E86A94
:1015700004224146002638442BF060FA0028ADD101
:10158000BAF1000F56D104F10C030434AB61002E04
:1015900000F01881EB6BE41AD5E90D1204F1020E8C
:1015A00004F1010C11F80480E01C11F80E30032A3C
:1015B00011F80C904FEA034343EA092343EA080376
:1015C00011F8008043EA08633B446B6211F80E3067
:1015D00011F80CE011F804C04FEA0344095C44EA36
:1015E0000E2444EA0C0444EA01643C4440F2538172
:1015F000336821463046DB689847286B0422696BC4
:1016000003681B699847002800F0CD802B6BEC63C2
:10161000002B00F06E81686B04223B492BF00EFA20
:10162000002840F0CA800122AB69EC616A612B623C
:10163000BDE8F88F0A2385F84030BDE8F88FB8F18F
:10164000000F3FF419AF07F12002BAF1000F00F0CC
:10165000D480EB6BDFF8B8C0D11A6A6BC3F13000ED
:1016600012F8018002EB010EC3F14001C3F1440303
:101670003844DE199EF8023039449EF801701B048C
:1016800043EA07239EF8037043EA080343EA07632B
:101690001718ACFB03C39B096B60BB7897F801E09C
:1016A0001B0412F800C0FF78501843EA0E2343EAE7
:1016B0000C0343EA0763AB60837847781B04515CF3
:1016C00043EA07230B43C17843EA01639119EB60B6
:1016D0008B7848781B04925D43EA00231343CA7851
:1016E00043EA02632B61CBE60D239A4685F840302E
:1016F000DBE600BF0CD90290C4D90290BCD902909D
:1017000090D90290A4D90290B4D90290ACD9029099
:10171000D34D62103746D5F82C900422764909EB58
:1017200007002BF08BF9002840F0C58007F1080076
:1017300004227249A86148442BF080F9002840F047
:10174000CE8007F10C0B04226D4909EB0B00C5F8A4
:1017500018B02BF073F98046002840F0B68007F1EE
:10176000100209EB020319F8022059789C78DB7803
:10177000240444EA0124144354EA036400F09480EE
:1017800007F1140004225F4948442BF057F970B95F
:1017900007F118004FF0010848444FF0000A5FE6D7
:1017A00095F840A083E60D2385F840302EE7062308
:1017B00007F1180085F84030EEE70B2385F840303C
:1017C000BDE8F88FE86A0219015D567893781B042A
:1017D00043EA06230B43D17843EA01633B446B623F
:1017E000015D56789478D378240444EA06240C43A7
:1017F00044EA03643C4420440EE7E96A07F1300CF4
:10180000DFF824E107F1400001EB020811F8029033
:1018100001EB0C02443798F801A098F8023098F8D0
:1018200003801B0443EA0A2395F840A043EA090316
:1018300043EA0863AEFB03E39B096B6011F80CC03D
:1018400092F801E09378D2781B0443EA0E2343EA2E
:101850000C0301EB000C43EA0263CA19AB6011F8F8
:1018600000E09CF801809CF802309CF803001B0407
:1018700043EA082343EA0E0343EA0063EB60C95DD1
:1018800050789378D2781B0443EA00230B4343EA51
:1018900002632B610BE609201B4B1C4AB12185F822
:1018A00040001B482AF08CFC1A4B4FF4AA711A4ACC
:1018B00017482AF085FC0320184B174A40F23F11C5
:1018C00085F8400012482AF07BFC0520144B124A90
:1018D0004FF4A77185F840000D482AF071FC0420F0
:1018E000104B0D4A40F2471185F8400008482AF095
:1018F00067FCE86A20448FE60CD90290C4D90290B4
:10190000BCD9029090D9029034D8029048D8029065
:10191000C8D7029098D9029030D9029014D9029079
:1019200078D9029060D90290D34D621010B400248F
:10193000C0E90A2104635DF8044BFFF72DBD00BF29
:1019400010B50B680446002208469B68C4E90B21C9
:10195000984703462046A362BDE81040FFF71CBD30
:1019600070B51F4B00241F4D82B01C602C601E4BB5
:101970001E4D1C601E4E2C601E4D2C60F568766B53
:1019800005EB45051B68B6EB040C1B4E4FEAC5156D
:10199000C3EBC30318BF4FF0010C00953460174E22
:1019A000174D3160174E05EB830385F818C0326080
:1019B00001225B686A764FF450422C70AC606C6117
:1019C000AC762C77AC8685F83640C5E90344C5E98A
:1019D0000944C5E90B4409F0A1FF204602B070BDDF
:1019E00010600024F05D002404600024F85D0024F1
:1019F000AC5D0024006000242060002418600024F6
:101A0000040000241C6000242DE9F047064602244F
:101A10003E480461F468250702D024F00F04103416
:101A2000046024093A4DC4604FF47074DFF800A1DB
:101A300044603469374F14F00F04DFF8F890DFF892
:101A4000F88018BFC4F1100484603348334C03603D
:101A50003348FFF785FF736C324E2B60DAF80030A5
:101A60000BB133686BBB2868037A3BB92E4B1B68FC
:101A7000C3EBC30318F82330012B3BD03B68012B89
:101A80000DD0022323602368022B24D02368012B6E
:101A9000E4D10023CAF800303360BDE8F087D9F8FC
:101AA0000030C3EBC30318F82330002BE9D1DAF878
:101AB0000030002BE5D1022119483B600AF0DEF826
:101AC000DFE717480AF0A4FE04281AD00123236098
:101AD0002368022BDAD1154B4FF0FF3118680EF056
:101AE000E9F92368012BB9D10023CAF8003033602B
:101AF000BDE8F0873368002BC0D103681B699847A5
:101B0000BCE7074809F088FFE0E700BFAC5D0024B0
:101B10000860002410600024246000240C6000246D
:101B2000AC7A0024EC5D0024F05D0024F45D002418
:101B300014600024046000240400002443692DE99B
:101B4000F041002B00F0AD800446006B0E46A56905
:101B500000285FD0A36B072B40F2A98003682946B9
:101B6000DB689847206B0822616B03681B69984704
:101B700000284AD0A169206B01F1040C8A1CE5639E
:101B8000002846D0636BACEB050C521B4D1B03EBDE
:101B90000C0713F80CE003EB050813F805C098F8E0
:101BA000015097F801804CEA052CBD78FF782D0490
:101BB00045EA082545EA0E0545EA07659F189B5C3E
:101BC0007A7843EA022701EB050EA36A0EF10802B8
:101BD0009A4213D243F230039C4538D146F2643323
:101BE0009F4234D1002D36D10132636A22F00102C6
:101BF0009A42A26102D00120BDE8F0810122236A4D
:101C00000020C4E90523BDE8F0810D2384F84030AD
:101C1000B0E70D46E36AAF1C281D29465A1913F890
:101C200005C0DD195278DF5D4CEA022C6D781A1878
:101C3000185C47EA052792F801E09578D3782D04DF
:101C400045EA0E250543002045EA0365BBE7002D64
:101C500018BF7246C8E701F10807A761F0B1A36B8E
:101C60009D4224D803683946DB689847206B2A4692
:101C7000616B03681B69984710B90D2384F84030E5
:101C8000616BE76326B133462A462046FFF7BCFE68
:101C9000D4E9053201332A446361A5E7E16A394496
:101CA000F0E7074BC321074A07482AF089FA0920C1
:101CB000064B074AB12184F8400003482AF080FA15
:101CC0008CD80290CCD90290C8D7029034D8029018
:101CD00048D802902DE9F0470446D0F81890006BE0
:101CE0000E4690461F46002800F0F980A36B072B94
:101CF00040F20A8103684946DB689847206B082256
:101D0000616B03681B699847002800F0B380A269E3
:101D1000206B131D02F10805C4F83C90002800F068
:101D2000FC80A3EB0902636B99189A5CA36B91F892
:101D3000029091F801C04FEA094949EA0C2949EAA1
:101D40000209CA7849EA02694B45C0F0DD800368A0
:101D50002946DB689847206B4A46616B03681B691C
:101D60009847002800F08280616BE563D4F80CC0CE
:101D700002236B481CF00F0F036172D16246634669
:101D8000B5881B090260B6F90020C3601544B6F996
:101D90000230F6882DB243611E4403F00F036545FF
:101DA000C261436336B228BF65464FEA121C02F097
:101DB0000F02DFF8A0A105F10F03056202634A4696
:101DC0001B09C0F824C0DFF890918362A3EB0C03D9
:101DD000C36223699E4228BF1E4615F00F054FF4CB
:101DE000707318BFC5F110058661436016F00F06C9
:101DF0004C4B18BFC6F1100685631F604A4BC66383
:101E0000C3F8008043464948FFF7AAFD484D636C7C
:101E1000484E494C494FDFF844812B60DAF80030D6
:101E200013B13368002B3BD12868037A3BB9444B8C
:101E30001B68C3EBC30318F82330012B44D03B6865
:101E4000012B1BD0022323602368022B32D023688E
:101E5000012BE3D100230120CAF800303360BDE834
:101E6000F0872CF00F0310331A4689E70D2384F80E
:101E7000403079E70D2384F8403048E7D9F8003046
:101E8000C3EBC30318F82330002BDBD1DAF80030A2
:101E9000002BD7D1022125483B6009F0EFFED1E7A6
:101EA00022480AF0B5FC042815D0012323602368DA
:101EB000022BCCD1234B4FF0FF3118680DF0FAFF05
:101EC0002368012BAAD1C5E73368002BB7D103687B
:101ED0001B699847B3E7154809F09EFDE5E709F14E
:101EE0000403E06A09F10801C2180144C05C557896
:101EF00092F80290D3784FEA094949EA052949EA5C
:101F0000000949EA036931E709200F4B0F4AB12163
:101F100084F840000E482AF053F99146E1E700BFEB
:101F2000AC5D0024FC5F002424600024AC7A002413
:101F300008600024EC5D00240C6000241060002484
:101F4000F05D0024F45D002434D8029048D802905B
:101F5000C8D7029014600024046000240400002408
:101F60004B68012B15D0022B0BD04BB9CB6858070F
:101F70001ED18B685A0703D023F0070308338B6008
:101F80007047CB681A07F4D023F00F031033CB60EF
:101F9000EFE7CB681A0703D023F00F031033CB60B1
:101FA0008B681807ECD023F00F0310338B60704759
:101FB00023F007030833CB60DBE700BF10B40C4C01
:101FC0000C4A236812680B449342236002D35DF8E5
:101FD000044B7047D21A084B1C68B2F5504F21448D
:101FE00028BF4FF450425DF8044B196009F00CBD56
:101FF000206000241C600024186000242DE9F041BA
:102000004A4E96464A4F33684A4D10333A69D5F8DE
:1020100000C03360484B494C1968236802FB01F14A
:10202000C3EBC3030CEB01112960454D316805EB8F
:102030008303C3F814C07B698B4260D221680122FC
:1020400023688046C1EBC101C3EBC30305F821201F
:10205000002105EB8303C3F808E02368C3EBC30347
:1020600005EB830319613B6B2BB12368C3EBC303FF
:1020700005EB83031A763268BB69934222D9236841
:102080002268C3EBC303013205EB83032260002205
:102090009A762368012B00D922602368C3EBC3031F
:1020A00015F82330002B38D123684046FA68C3EB7B
:1020B000C30302EB420205EB8303D201596809F026
:1020C000A7FCBB6932689A420BD21E4B1B681B7A75
:1020D0000BB1BDE8F0811C4BBDE8F04118680DF074
:1020E0001BBF2368012219494046C3EBC3030A60A2
:1020F000022105EB8305AA7609F04EFCE5E723688B
:10210000FA68C3EBC30302EB420205EB8303D2017F
:102110005968BDE8F04109F07BBC0221404609F056
:102120003BFC0B4B01221A60BEE700BF006000249D
:10213000AC5D002424600024FC5F002404600024C3
:102140000400002408600024F45D002414600024CE
:102150001060002472B6FEE7014B01221A6070473E
:1021600014600024F0B51E4F0369FC6ABA6BA4EB3F
:10217000030C04611B4EC2EB0C114FEA0C1C11F056
:102180000F054FEA0144796A18BFC5F110050B44E9
:10219000396903FB01F103EB43034FEA011E0221FE
:1021A000DB017163817EB9B1F96BC1F1100121438B
:1021B0007164416902F5F07201EB0E044168A2EB13
:1021C0000C0209481944074BDC631A64074A1D6175
:1021D000DA61D9601860F0BD44F010047464E8E777
:1021E000AC5D002400100052012301000B0009FF28
:1021F00002692DE9F04105468AB0002A65D1354BC8
:10220000D3F830C0CCF1100080B2D96A01398A42CB
:1022100002D1996B411A88B26E7E5F6B002E51D04D
:10222000C7F11001B84689B295F81AE0BEF1000F67
:1022300002D0DC6B091B89B2D3F810E05B6A08FBA3
:102240000EF4134401320CFB0EFC2A61C4EB0412A1
:102250000CEB041852000EFB032203EB43030CEBC0
:10226000021CDC0107B10EB900232B761A4B0026A5
:102270001A4F07936B691A4A6344ADF81800106847
:10228000059308EB0703ADF8216002930123ADF835
:102290001A1001A90193036804965B689847114BD3
:1022A00002216A68104859634FF0101122445964A2
:1022B0000E49DF631E641E61D861DA6019600AB0DE
:1022C000BDE8F0811021B046AEE710204FF0000CC1
:1022D000004B9AE7AC5D00241000E001FC5D002497
:1022E00008600024001000520B0009FF01230100C8
:1022F0000D4B0269DB6A9A4200D0704700220B4BFB
:10230000027019688260013102831960196801291D
:1023100000D91A60837E13B1054B01221A60054B68
:1023200018680DF0F9BD00BFAC5D0024F05D00241D
:10233000EC5D0024F45D00240121002208B508466C
:102340000DF062FD0B4B186040B10022042101200A
:102350000DF00CFE084B186030B108BD074B28216A
:10236000074A084829F02CFF074B2C21044A05484E
:1023700029F026FF2C6000242860002428DA02902F
:1023800074DA0290A4DA029008DB0290024B4FF05C
:10239000FF3118680DF08EBD2C600024014B1868C9
:1023A0000DF0BABD2C600024024B002118680DF01E
:1023B00081BD00BF2C600024014B18680DF0ACBD3E
:1023C0002C6000240348002303491A4600680DF0DE
:1023D00009BE00BF286000243C00002410B5002383
:1023E00082B0074C01A91A4620680DF037FE4FF065
:1023F000FF33002201A920680DF030FE02B010BDAD
:102400002860002403685B6C184700BF01207047F8
:10241000FEE700BF05494FF08062054B0160C3F83D
:102420008820BFF34F8FBFF36F8F70478CF30290FC
:1024300000E100E0114B1249D3F8D420114842F0DA
:10244000100210B4104C83B0C1E90840C3F8D42086
:10245000D3F8D42002F010020192019ADA6F42F010
:102460001002DA67DA6F22F01002DA67074B4FF0DA
:1024700080629A6003B05DF8044B704700440258D4
:10248000487C0024112400905928009000E100E0CD
:1024900040F2EF30704700BF09494FF08062094BAE
:1024A00010B501600446C3F88820BFF34F8FBFF317
:1024B0006F8F40F6A45129F00DFB204610BD00BFE0
:1024C0008CF3029000E100E090F8A03D10B50446C6
:1024D00063B903689B6A98472449254A0B68C3EB94
:1024E000C30312F82330012B15D010BD037A002B43
:1024F0002BD1606803681B68984703460028F4D115
:10250000627A002AF1D02268204684F8A03D536AFE
:10251000BDE810401847174800680028E5D1207A28
:102520000028E2D1086884F8A03DC0EBC000237207
:1025300002EB8000037E0868C0EBC00002EB800065
:102540007BB1BDE81040FFF753BE084B002208489E
:102550001B682272C3EBC30300EB8300FFF7C8FEC6
:10256000C7E7BDE81040FFF7FDBD00BFF05D0024E8
:1025700004000024EC5D002470B58B7F0A2B3DD84D
:10258000DFE803F03A062A3C3C3C3C06060606001F
:102590000124B1F814C0C88A4A8B1B4B40EA0C4096
:1025A0000D69A2EB0C025C635864DD631A640E686B
:1025B000C868082E12D0020A00254109C0F3C400E1
:1025C00002F47842DC6101F4FC611D610A430F49A9
:1025D00002439A63196070BD0024DAE79A611A61B8
:1025E0005C620B4A097F42EA01620A49DA611862B9
:1025F0005D61DD60196070BD0224CAE7064B912160
:10260000064A074829F0DCFD0010005201230300B0
:1026100009000100012302004CDB029068DB0290FC
:10262000B4DB0290F8B591F81DE0BEF10B0F00F29B
:10263000AA80DFE80EF05D5846A8A8A8A8060606FE
:102640000606052691F81EC0BCF10B0F00F29B8018
:10265000DFE80CF0504B0D9999999906060606068D
:10266000BCF10B0F00F095800524012701E0002448
:1026700027468B8A4A8B0D8BC88AD21AED1A40EAFC
:1026800003404A4B1A649A611D614A685F6358644B
:102690000869D863DA600D680F7F802D4FEA076202
:1026A0003CD010D8202D36D0402D34D0042D24D14C
:1026B00032433F4942F40032DA615C62586119608A
:1026C000F8BD0026BEE7B5F5807F22D0B5F5007FC6
:1026D00013D1384D1543364ADD61C96819625C6211
:1026E00058611A60F8BD0126ACE701242746C0E70F
:1026F0000226A7E702242746BBE71643E6452B4BF5
:1027000046F4003614BF2C4A42F20132DE611A60F0
:10271000F8BD2A4DDEE73243244BCAE789683243CD
:102720000D1D42F40032DD62DA610A785C625861A4
:10273000E2B1012A33D1D869FF3F4988204A18BF46
:1027400001270139024042EA012242F01002DA6117
:10275000164AD36943F02003D361D3699B06FCD4A6
:102760001023936067B1124B1360F8BDD86901273D
:102770004988134A0139024042EA0122DA61E7E757
:102780000D4B1360F8BD0F4B70210F4A0F4829F015
:1027900017FD0C4B91210E4A0C4829F011FD0D4BF1
:1027A00040F21B110C4A094829F00AFD00100052A2
:1027B0000123020009000200012301000A000200B7
:1027C000EF00FFFF4CDB029014DC0290B4DB0290C0
:1027D00068DB029060DC02907CDC029010B504465D
:1027E000406803681B68984758B9637A4BB1237AED
:1027F0003BBB2268204684F8A03D536ABDE81040E8
:1028000018471349134A0B68C3EBC30312F823306C
:10281000012B00D010BD207A0028FBD1086884F875
:10282000A03DC0EBC000237202EB8000037E08686D
:10283000C0EBC00002EB800033B1BDE81040FFF7F1
:10284000D7BC034B1B6810BDBDE81040FFF78ABC26
:10285000F05D0024040000242C4B2D491B6810B5AA
:102860005C6823685A698A4222D194F8A02D92B1FB
:10287000237A002B3AD1606803681B6898470346A7
:10288000A8B9627A9AB12268204684F8A03D536ABA
:10289000BDE8104018479B6A204698471D491E4ACC
:1028A0000B68C3EBC30312F82330012B04D010BD17
:1028B0002046BDE810401047184800680028F6D1AF
:1028C000207A0028F3D1086884F8A03DC0EBC0004E
:1028D000237202EB8000037E0868C0EBC00002EBAD
:1028E00080007BB1BDE81040FFF782BC094B00229D
:1028F00009481B682272C3EBC30300EB8300FFF798
:10290000F7FCB8E7BDE81040FFF72CBC541E0224CA
:10291000C9240090F05D002404000024EC5D002434
:1029200070B506460B4B00250C30344660223572DC
:102930007572706044F8203B214611F0AFFA2146D1
:1029400006F55A63CD6024319942FBD1304686F8B2
:10295000A05D70BD8CF30290034A1368DB07FCD4C2
:1029600023239360704700BF001000520B4A536945
:10297000DB0301D5002900DC704700F01F03194478
:10298000BFF34F8F0144C2F8680220300B1A002BAE
:10299000F9DCBFF34F8FBFF36F8F704700ED00E09E
:1029A00030B4114C2568ED07FCD423250904FF2B16
:1029B000A56041F001014FF0020565636164E063C9
:1029C0000BD00A49656241EA03630949E361226267
:1029D0006061E060216030BC7047E561029A054BA0
:1029E000A263236030BC7047001000520900010050
:1029F000010002000100030030B4104C2568ED070F
:102A0000FCD423251204FF2BA56042F001024FF0F5
:102A1000020565636264E063E16009D01B06084A51
:102A200043F00213E36165626061226030BC70476D
:102A3000044A0123E261236030BC70470010005259
:102A400001000200020002FF70B40C4C2568ED0783
:102A5000FCD4120402251B06232642F0010243F493
:102A60000033A66065636264E063E160E361044B88
:102A700065626061236070BC704700BF0010005247
:102A800001000200012070470C20704701EB41015A
:102A900000EB81000830704701EB410100EB810041
:102AA00008307047012070474FF42670704700BF10
:102AB0004FF4267303FB0100083070474FF4267370
:102AC00003FB010008307047012070471020704759
:102AD00000EB01100830704700EB01100830704720
:102AE000084603F0D7BB00BF034B10B50446036094
:102AF0000FF0E3FF204610BD44F40290054B10B5E3
:102B0000044603600FF0D9FF1421204628F0E2FFAD
:102B1000204610BD44F40290034B10B504460360F8
:102B20000FF0CBFF204610BD10F40290064B10B5FD
:102B3000044603600FF0C1FF4FF42871204628F0CF
:102B4000C9FF204610BD00BF10F40290034B10B522
:102B5000044603600FF0B1FF204610BDDCF3029085
:102B6000054B10B5044603600FF0A7FF182120465F
:102B700028F0B0FF204610BDDCF3029010B50C4ADF
:102B800004460C4B00F533702260C4F8CC320FF0D1
:102B900094FF094B204640F82C3F0FF08EFF074B67
:102BA000204640F8143F0FF088FF204610BD00BFBC
:102BB00078F4029044F4029010F40290DCF3029056
:102BC00010B50C4C0C4A0D4B04F533702260C4F860
:102BD000CC320FF072FF0A4B204640F82C3F0FF02A
:102BE0006CFF2046074BBDE8104040F8143F0FF043
:102BF00064BF00BF186F002478F4029044F4029080
:102C000010F40290DCF3029010B50E4A04460E4B0D
:102C100000F533702260C4F8CC320FF04EFF0B4B3E
:102C2000204640F82C3F0FF048FF094B204640F863
:102C3000143F0FF042FF20464FF4896128F04AFF0D
:102C4000204610BD78F4029044F4029010F40290F3
:102C5000DCF302902DE9F04182B0002402F066FC22
:102C6000054602F067FC23460146224628460094AA
:102C700019F06EFE294B2A4A20462A4C1A6003F0AE
:102C8000B5FE294B294A2A489A6019F0C9FD2368E4
:102C9000BFF35B8FDB0705D5264802B0BDE8F041E6
:102CA000FEF750B9204628F017FF0028F4D0224D37
:102CB000224B05F53B7605F1140005F12C0805F5CE
:102CC00033772B60EF602E61C5E901080FF0F6FE47
:102CD0001B4B40466B610FF0F1FE1A4B3846EB621E
:102CE0000FF0ECFE184B05F53870C5F8CC3204F047
:102CF00013F82A4605F53871304604F003F83046DB
:102D000003F0C8FA114829F079FA204628F0F0FEBD
:102D1000084802B0BDE8F041FEF714B9B81E02241D
:102D2000C0600024146F0024E0600024C46000240C
:102D30004000002430600024186F002478F40290D2
:102D4000DCF3029010F4029044F40290C12B009046
:102D5000704700BF0148FEF743B900BF3060002450
:102D600070B52A4E2A4B2B4C30462B4D2360FFF773
:102D7000D7FD28461EF0FCFE284817F0F3FA284B32
:102D800000224FF4F0704FF48871DA621A865A65A7
:102D900083F858205A66DA6683F87020C3E9034244
:102DA000204C9C66204C2360204C2080204C2080AE
:102DB000204C21482180018020482149214CC3E931
:102DC00001654FF48075C3E905229D64C3E90722BC
:102DD000C3E90922C3E90E22C3E91022C3E9132281
:102DE000C3E917220270196017491848D9671849B2
:102DF000C3F8882083F83420C3F88000C3F88C20FF
:102E0000C3F88410C3E91D2470BD00BF6C610024A9
:102E1000E0D50290106F0024E0600024C46000241C
:102E20003060002401000001541E0224481E0224C8
:102E30004E1E02244A1E0224501E02244C1E02244E
:102E40005CF202900000010100044400160014002E
:102E5000B8D502900148FFF7DDBA00BF6C610024CD
:102E600090F8252012B103685B691847704700BFCE
:102E70000020704781807047C18070470181704792
:102E800041817047704700BF704700BF704700BF67
:102E9000704700BF704700BFB0F806C00368A2EBE0
:102EA0000C02B0F804C05B6DA1EB0C0112B209B2C8
:102EB000184700BF13684FF6FF7C4FF0FF31A0F8B2
:102EC0000CC0C0E907311060704700BF90F82520A2
:102ED0001AB190F8242002B11860704700207047A2
:102EE00003468A8801209A80704700BF704700BF60
:102EF00080F82610704700BF90F82600704700BF8A
:102F00004FF0000C8A68C0F800C04260704700BFF4
:102F100000220260426070470020704701777047CE
:102F200080ED080A704700BF80F82410704700BF8A
:102F300080F82510704700BF012070479830704717
:102F40008C30704784307047704700BF704700BFB7
:102F5000704700BF034B902283F85A2383F858230D
:102F6000704700BF00E100E0094A0A49D3680A48F7
:102F7000C3F30A03013B9BB20B801169C1F30A0141
:102F8000013901801364536B43F0010353637047AD
:102F9000001000506273002460730024014BD3F8CA
:102FA000AC00704700100050024B0122C3F8AC1077
:102FB0005A62704700100050704700BF01EBC1011A
:102FC000002300EB810080F82430704780F82C103B
:102FD000704700BF10B50446302128F07BFD204625
:102FE00010BD00BF10B504462C2128F073FD20460B
:102FF00010BD00BF10B50446BC2128F06BFD204673
:1030000010BD00BF11B990F82500704708B5034AFC
:103010004FF49271024B034829F0D2F8D0DC0290B1
:10302000BCDC0290ECDD029021B9406811460368D7
:103030001B6B1847034B4FF48F71034A034810B5BD
:1030400029F0BEF8BCDC029034DE0290ECDD029088
:1030500009B9C068704708B5034A4FF48B71034B38
:10306000034829F0ADF800BF74DF0290BCDC029089
:10307000ECDD029021B981600161C0E90532704741
:1030800008B5034A4121034B034829F099F800BFD2
:10309000BCE00290BCDC0290ECDD029008B5034677
:1030A00090F8240040B9012283F8242081F83400EC
:1030B000C1F83600086308BD034B40F26D11034AA6
:1030C000034829F07DF800BF08E2029038E2029040
:1030D000ECDD02900FF0D6BF0FF0E0BF0FF09CBF09
:1030E00010F00BB914484369D90323D5002310B558
:1030F000C0F88430BFF34F8FD0F8803043F6E074CF
:10310000C3F34E3CC3F3C90E4FEA4C1C0CEA040156
:10311000734641EA8372013BC0F874225A1CF8D10D
:10312000ACF1200C1CF1200FF0D1BFF34F8FBFF397
:103130006F8F10BD704700BF00ED00E0F0B583B0A9
:1031400059BB044640681D46164603681B699847EC
:1031500008B903B0F0BD144F0121386810F0A2FD8A
:1031600029460546684617F0E3F8684615F0A8FCBE
:103170000E4B60683146BDF902401B88BDF9002046
:1031800003FB0422046805EB4202E469A0473868A7
:1031900003681B6B984703B0F0BD054BEA21054A55
:1031A000054829F00DF800BF541E02244E1E0224CB
:1031B000BCDC029050E30290ECDD0290084B4FF033
:1031C0008062C3F88820BFF34F8FBFF36F8F4FF03B
:1031D0008072C3F88820BFF34F8FBFF36F8F7047A3
:1031E00000E100E0034B4FF080629A604FF0807284
:1031F0009A60704700E100E02DE9F041002940F0BD
:10320000968090F82530044633B990F826301BB9E3
:1032100001252846BDE8F081484B002721691B683D
:1032200093F86B3084F826700B4494F828102361CF
:1032300079B9A2680125616901FB03F3A16901FB6A
:1032400002F2934224D80023284684F82830BDE8AF
:10325000F0811368104666685B699847E16921BB95
:10326000236A002B42D1364F94F827503368002D43
:103270002CD09B6930469847054633689B6ABB4211
:1032800045D17069A26823690132E060A260D2E78B
:1032900094F82C0038B19B1AB3FBF1F2994298BF15
:1032A00002F1FF3222620123CEE7336830465B6AC7
:1032B00098473368E5693046DB6A98478542E7619D
:1032C00028BF00251E4F38BF0125D6E79A6ABA42AB
:1032D00024D1D6F81480DB6A30469847804519D24D
:1032E000336830469B6998470546C6E73268144FF5
:1032F000D2E90952BA4216D17069C1183046A847BE
:10330000226AA36813440022A3602262ACE730461D
:103310009847B7E7002384F82530AEE7304690475A
:1033200033688046D7E730469047236AE5E7054B88
:10333000AA21054A054828F043FF00BF541E022475
:1033400065100090BCDC029098E40290ECDD0290E5
:1033500070B511BB0446406811461A4603689B6865
:1033600098476068104A03689B6A93420CD1406991
:10337000216800230D4A4D6AE060954284F82830A8
:1033800004D1A4F8253070BD9847F1E72046AC463B
:1033900001221946BDE870406047054B4F21054AA0
:1033A000054828F00DFF00BF6510009025340090FF
:1033B000BCDC0290CCE50290ECDD029070B509BB5C
:1033C0000446406811460368DB6898476068104A05
:1033D00003689B6A93420CD14069216800230D4A1F
:1033E0004D6AE060954284F8283004D1A4F8253075
:1033F00070BD9847F1E72046AC4601221946BDE86A
:1034000070406047044B5F21044A054828F0D8FE0D
:103410006510009025340090BCDC029038E70290E3
:10342000ECDD029070B500294FD10446052A0BD877
:10343000DFE802F01133373C030B00230122A0F830
:103440002530C2618360036170BD003B18BF01235A
:1034500080F8273070BD406803681B6998470028D2
:10346000F2D00023012194F82720A4F82510A360AE
:103470002361002AE8D16468174923689A6A8A425E
:103480001ED16569DB6A204698478542DCD12368F6
:1034900020469B69BDE8704018470023A0F82530FE
:1034A00070BD0022C3618260026170BD01210022F3
:1034B000C36180F8261080F828108260026170BD18
:1034C0002046904723680546DCE7044B6F21044AF9
:1034D000044828F075FE00BF65100090BCDC029027
:1034E00070E80290ECDD029038B504460FF0E3FD81
:1034F00023689D6E15F07EFC01462046A847236890
:10350000134AD3F88C50954216D1124A0125D3F8AC
:10351000903002F57F311048C4E90F210F4A057041
:10352000934210D100230E4A636413700D4B6168FF
:103530000D4A5964536038BD0C4A00232046A2F559
:103540007F31A847F2E7002120469847EEE700BF09
:10355000890F009000FC03D0521E0224B90D009088
:10356000531E0224547400242474002400F807D04D
:10357000434870B50468BFF35B8F14F0010401D0B9
:10358000404870BD28F0A8FA0028F9D03D4D3E4BC8
:1035900005F134002C61C5F82640C5F82A403B4EA1
:1035A000C5E90034C5E9024417F0C1F905F1580036
:1035B00012F02EF9364B374A2B6033683649C5F87E
:1035C000842093F85820A5F88840A96592B1D86C5A
:1035D000002840D00368314CDA6AA24217D09047E5
:1035E0003368B0FA80F6D86C760900283FD00368BB
:1035F000DB6A0AE09868294C0268D26AA242EED1DE
:10360000D86C20B103680126DB6AA3422AD1244981
:10361000002200234FF4C80401F12400C5F89C20C7
:10362000C5F88410C5F8AC30C5F8B030C5F8B43072
:10363000C5F8B830C5F8A040C5E92302C5E929227C
:10364000184A1948C5F8982028F0D8FD0C4828F0E9
:103650004FFA0C4870BD9868104C0368DA6AA242B1
:10366000D5D0BCE79847002808BF46F00106002ED9
:10367000CDD10E4B2C210E4A0E4828F0A1FD00BFE3
:10368000647300246873002430030390541E0224E2
:1036900024F502908CF40290ACF40290192F009063
:1036A000E4020390C4020390512F0090D4E90290E9
:1036B00034EA029070EA029038B5184C23685BB384
:1036C000174B184A1B6C11888B420ED009F024FA54
:1036D0002468236820461B6A98470123002084F849
:1036E0007C30BDE83840FDF709BB0F4B0025198839
:1036F00009F012FA236893F86A2083F87C500132AB
:1037000083F86A20FEF75EFE206810F06BFA284608
:10371000BDE83840FDF7BEBA38BD00BF541E0224D4
:1037200000100050627300246073002410B50B4831
:10373000FDF70EFE0A4C0B4B00224FF0807001216A
:103740001C60586283F8282083F82C105A60C3E963
:103750000222C3E90422C3E9062210BD54740024E6
:1037600070F5029024740024014900200EF006BD7B
:103770004510009002680B689A42ACBF00200120FF
:103780009A42D4BF4042C0F1010070472DE9F84F82
:103790004D4BDFF85C81DFF85C9103F59476DFF840
:1037A00058A14A4F2DED028B9FED498A49494FF4AC
:1037B0009672D8F80040A1F16400D9F8005029F0C1
:1037C0001BF90021444A0846936EA34242F8043F85
:1037D00001D21C460121AB4201D91D46012096426F
:1037E000F2D109B1C8F8004008B1C9F800503B4C0B
:1037F0003B4D04F1640B54F8043BCAF8003000F070
:1038000085FE0128FBD02146284600F0EDFE226807
:10381000DAF800309A4236D9D21AD9F8003007EED9
:10382000902AD8F800209B1AF8EE677A07EE103A33
:103830002C4BB8EE477AC7EE876AD7ED007AF8EEE0
:10384000677AE6EEC87AF5EEC07AC3ED007AF1EE5B
:1038500010FA37D4FCEEE77A17EE903A2148043597
:103860003B6000F061FEA345C5D11F4B18680CF00A
:1038700053FB1E4B4FF0FF3118680CF01BFB282048
:103880000CF0B4FA92E79B1AD8F8002007EE903AB1
:10389000D9F800309B1AB8EE677A3A6807EE903A8A
:1038A000104BF8EE676AC7EE267A67EE887AC3EDAA
:1038B000007AFCEEE77A17EE903A1344FF2B28BF0C
:1038C000FF23CBE70023C9E72875002418750024DF
:1038D00000007F431C7700242475002450760024C8
:1038E000E4770024147500244C78002448780024E0
:1038F00024750024207500241C7500242DE9F04156
:1039000000F016FD64200CF071FA184C00F02AFD4E
:1039100064200CF06BFA164F164A0023164904F582
:10392000C878164E3A60164D164A0B603360136025
:1039300000F0ECFD0128FBD02146284600F054FEA3
:1039400054F8043B3968043532688B4238BF3B6019
:10395000934288BF33604445EAD164200CF046FAB4
:103960000020BDE8F0410EF067BA00BF28750024C2
:1039700024750024FFFF030018750024207500241F
:10398000B8760024A4740024DFF8F4A0DFF8F480F3
:10399000DFF8DC900AF113042F4E304D2DE98848F2
:1039A0002F4FDFF8E4B02F4B4FF0FF3118680CF0C9
:1039B00081FA3B4632466421284600F041FE3246F9
:1039C000294B6421284600F0EBFF3A78642A33D96A
:1039D000D8F80030142B27D19AF80020DFF8A0A0E7
:1039E000534613F8011F8A4238BF0A46A342F8D152
:1039F0001E4B14211E488BF80020042228F009FDDC
:103A00001C491D48D9E9093200689B189BF8002021
:103A100048BF01330A715B100B6000231A460CF09B
:103A2000E1FA0023C8F80030144B18680CF074FA5F
:103A300028200CF0DBF9B6E70B4B1968D8F80030FA
:103A4000A1F11F009428C5D80AF8032049F82310D3
:103A50000133C8F80030BDE728750024B87600248B
:103A6000117500244C7800240C75002475370090E3
:103A7000A87400249C740024507800244878002402
:103A8000F8740024A47400241075002470B59EB04E
:103A90004C2200210AA828F0C9FF2022002102A8F8
:103AA00028F0C4FF022009F09BFA224A0021224B91
:103AB0000191916941F440419161916901F4404162
:103AC0000191D96A41F00101D962DB6A03F0010377
:103AD0000193019B93699B04FCD501244FF480352D
:103AE00002230521C02204260AA8CDE90A4508259B
:103AF0000024CDE91512CDE91333CDE91736CDE910
:103B00001935CDE91B4409F001FB3F23032231465F
:103B10000293402303924FF480620DEB050004945E
:103B20000595CDE90633CDE9082309F06BFE1EB0FB
:103B300070BD00BF004802580004005880B5002442
:103B40009AB001251B270326CDE90D44CDE90F448A
:103B500004F05CFB4FF01052D74B0DA8ADF8345079
:103B6000CDE90E23D54B109304F06EFB4FF01043BC
:103B70000DA88DF83F400E93ADF842408DF83550BA
