:020000040800F2
:1000000000000220511C0008710900087309000853
:100010007509000877090008790900080000000048
:100020000000000000000000000000007B09000844
:100030007D090008000000007F0900088109000810
:10004000A11C0008A11C0008A11C0008A11C00089C
:10005000A11C0008A11C0008A11C0008A11C00088C
:10006000A11C0008A11C0008A11C0008A11C00087C
:10007000A11C0008A11C0008A11C0008A11C00086C
:10008000A11C0008A11C0008A11C0008A11C00085C
:10009000A11C0008A11C0008A11C0008A11C00084C
:1000A000A11C0008A11C0008A11C0008A11C00083C
:1000B000A11C0008A11C0008A11C0008A11C00082C
:1000C000A11C0008A11C0008A11C0008A11C00081C
:1000D000A11C0008A11C0008A11C0008A11C00080C
:1000E000A11C0008A11C000800000000A11C0008C1
:1000F000A11C0008A11C0008A11C0008A11C0008EC
:10010000A11C0008A11C0008A11C0008A11C0008DB
:10011000A11C0008A11C0008A11C0008A11C0008CB
:10012000A11C0008A11C0008A11C0008A11C0008BB
:10013000A11C0008A11C0008A11C0008A11C0008AB
:1001400000000000000000000000000000000000AF
:10015000A11C0008A11C0008A11C0008A11C00088B
:10016000A11C0008A11C0008A11C0008A11C00087B
:10017000A11C0008A11C0008A11C0008A11C00086B
:10018000A11C0008A11C0008A11C0008A11C00085B
:10019000A11C0008A11C0008A11C0008A11C00084B
:1001A000A11C0008A11C0008A11C0008A11C00083B
:1001B000A11C0008A11C0008A11C0008A11C00082B
:1001C000A11C0008A11C0008A11C0008A11C00081B
:1001D000A11C0008A11C0008A11C0008A11C00080B
:1001E000A11C0008A11C0008A11C0008A11C0008FB
:1001F000A11C0008A11C0008A11C0008A11C0008EB
:10020000A11C0008A11C0008A11C0008A11C0008DA
:10021000A11C0008A11C0008A11C0008A11C0008CA
:10022000A11C0008A11C0008A11C0008000000007F
:10023000A11C0008A11C000800000000A11C00086F
:10024000A11C0008A11C0008A11C0008A11C00089A
:10025000A11C0008A11C0008A11C0008A11C00088A
:10026000A11C0008A11C0008A11C0008A11C00087A
:10027000A11C0008A11C0008A11C0008000000002F
:10028000A11C0008A11C0008A11C0008000000001F
:1002900000000000A11C000810B5054C237833B9FC
:1002A000044B13B10448AFF300800123237010BD49
:1002B0003C04002000000000081E000808B5034BA5
:1002C0001BB103490348AFF3008008BD00000000E4
:1002D00040040020081E000880B59CB0BFF34F8F7B
:1002E000BFF36F8F684B0021C3F85012BFF34F8FDD
:1002F000BFF36F8F5A6942F400325A61BFF34F8FD8
:10030000BFF36F8FC3F88410BFF34F8FD3F88020F3
:1003100043F6E076C2F3C904C2F34E32A507520198
:1003200002EA060C284621464CEA0007013900F192
:100330004040C3F860724F1CF6D1203A12F1200FF2
:10034000EED1BFF34F8F5A6942F480325A61BFF346
:100350004F8FBFF36F8F00F079FB022000F016FD86
:1003600000230093494BDA6A22F00102DA62DB6A69
:1003700003F001030093464B9A6942F440429A61AC
:100380009A6902F440420092009A9A699404FCD55A
:100390004FF480334FF0010E0520A02102220424E7
:1003A00008251692189217941995CDE909E30023B0
:1003B000CDE9140109A80C9310931B931A93CDE96E
:1003C000122201F005F800B1FEE703234FF03F0CC5
:1003D0004FF480622146CDE901C34023CDE90305F6
:1003E00001A8CDE90533CDE9072301F00DFB00B1EC
:1003F000FEE700F0BBF900B1FEE7BFF34F8FBFF39C
:100400006F8F214B5A6922F400325A61C3F85002AF
:10041000BFF34F8FBFF36F8FC3F88400BFF34F8FCD
:100420005A6922F480325A61BFF34F8FD3F880208B
:1004300043F6E076C2F3C904C2F34E32A507520177
:1004400002EA060C284621464CEA0007013900F171
:100450004040C3F874724F1CF6D1203A12F1200FBD
:10046000EED1BFF34F8FBFF36F8F0A4B00221A609C
:10047000094B0A4A1B6813604FF01042126882F35E
:1004800008889847FEE700BF00ED00E00004005830
:100490000048025810E000E00400009058040020DA
:1004A0007B4B2DE9F04FD3F8D42091B0794D09243E
:1004B00042F480420026784F0BA9C3F8D420284686
:1004C000D3F8D4204FF040084FF00A0BDFF8D0A14A
:1004D00002F480424FF400790092009ADA6F42F4FD
:1004E0008042DA67DA6F22F48042DA67D3F8E020DC
:1004F00042F02002C3F8E020D3F8E02002F020020E
:100500000192019AD3F8E02042F00802C3F8E020FB
:10051000D3F8E02002F008020292029AD3F8E02019
:1005200042F02002C3F8E020D3F8E02002F02002DD
:100530000392039AD3F8E02042F02002C3F8E020AF
:10054000D3F8E02002F020020492049AD3F8E020CD
:1005500042F02002C3F8E020D3F8E02002F02002AD
:100560000592059AD3F8E02042F04002C3F8E0205B
:10057000D3F8E02002F040020692069AD3F8E02079
:1005800042F08002C3F8E020D3F8E02002F08002BD
:100590000792079AD3F8E02042F08002C3F8E020E7
:1005A000D3F8E02002F080020892089AD3F8E02005
:1005B00042F04002C3F8E020D3F8E02002F040020D
:1005C0000992099AD3F8E02042F04002C3F8E020F3
:1005D0004FF48062D3F8E03003F040030A930A9BA3
:1005E0000223CDE90B230323CDE90D630F9400F023
:1005F000DBFA01230BA93846CDF82C800D93CDF8FA
:100600003CB000F0D1FA4FF400630BA923480B93E0
:100610000D960F9400F0C8FA04230BA950460F94CE
:100620000B9300F0C1FA0BA92846CDF82C90CDF819
:100630003CB000F0B9FA08230BA950460F940B9375
:1006400000F0B2FA80230BA928460F940B9300F018
:10065000ABFA0BA93846CDF82C9000F0A5FA0BA9FF
:100660002846CDF82C8000F09FFA4FF480430BA968
:1006700038460B9300F098FA32460F215C2000F0C8
:100680003DFA5C2000F06CFA11B0BDE8F08F00BFBD
:10069000004402580014025800180258000C025876
:1006A000001C025800B54FF4407395B04FF04072F3
:1006B00011480C9305230F920222069300230B92FC
:1006C00006A913930093049303926A46CDE90D3370
:1006D000CDE91133102302934FF48003059340F2C8
:1006E0000113019341F2883300F0D9FD003018BFA7
:1006F000012015B05DF804FB5C04002000B54FF448
:10070000407395B041F2883217480C93062306A92E
:1007100006930023CDE90D330F930B931393CDE98B
:10072000113300F0BCFCE8B940F2022302224FF47E
:10073000800104900C48CDE900331023CDE902324A
:1007400005236A46CDE905134FF0407306A90F93C0
:1007500041F2883300F0A3FD003018BF012015B02E
:100760005DF804FB0120FAE75C0400202DE9F0436A
:100770007D4C9DB07D4B2046236000F074FC074605
:1007800008B10124ECE0FFF78BFE01250323C4E947
:1007900001351023E3604FF0006393FAA3F3B3FA3B
:1007A00083F34FF440762046E761013B2361402309
:1007B000C4E90567236200F0F7FB0028E1D14FF49C
:1007C00080774FF06609099041F2883205906946BA
:1007D0000D900697CDF80090CDE90700CDE90B000C
:1007E000204600F05CFC0028CBD14FF0990841F284
:1007F000883269462046CDF8008000F050FC002881
:10080000BFD141F28832694620460696CDF8009065
:1008100000F045FC0028B4D141F2883269462046F8
:10082000CDF8008000F03BFC0028AAD135231790BA
:10083000139041F288321B900EA914970E93CDE9C4
:100840001500CDE91900204600F029FC002898D1B8
:10085000FFF728FF002894D1B723149617900E9322
:1008600013901B90CDE91500CDE91900FFF746FF65
:10087000002886D141F288320EA9204600F00FFCF4
:1008800000287FF47EAFFFF70DFF00287FF479AFDB
:1008900085234FF440764FF04075ADF800000E937D
:1008A0000223139041F288320EA914961795CDE9D0
:1008B0001500CDE91830CDE91A002B4800F0EFFB08
:1008C00000287FF45EAF41F288326946264800F086
:1008D00085FC00287FF455AFFFF710FF0446002881
:1008E0007FF44FAF812341F288320EA91E480E9348
:1008F000BDF8003023F0F0031B051B0D43F400434B
:1009000043F08003ADF8003000F0C9FB00287FF40D
:1009100038AF41F288326946134800F003FC0028E2
:100920007FF42FAFED236A460EA90F480E934FF4C4
:1009300040631B9415934FF4405314961193052371
:10094000CDE9164513934FF000454FF08043CDE9B4
:100950000044CDE9195300F0F7FC002818BF01242A
:1009600020461DB0BDE8F0835C040020005000521A
:100970007047FEE7FEE7FEE7FEE770477047704707
:1009800000F092B81849194810B5D1F8883043F4EE
:100990007003C1F88830164B1A6842F001021A60E1
:1009A00000221A611C68204018609A61DA611A629C
:1009B0009A62DA621A635A639A63DA631A645A644F
:1009C000186820F4802018601A660A4B1B681B0CFC
:1009D0001B04B3F1005F02D2074B01221A604FF0F3
:1009E00000638B6010BD00BF00ED00E07FEDF6EA14
:1009F000004402580010005C08810051704700005C
:100A000038B50F4B0546187808B9012038BD4FF4AA
:100A10007A730C4AB3FBF0F31068B0FBF3F000F00C
:100A2000ADF804460028F0D10F2DEED80246294635
:100A30004FF0FF3000F062F8034B20461D60E5E701
:100A400008000020000000200C00002010B503204A
:100A500000F042F800F03CFF0F49104A8B69C3F3E5
:100A60000323D35C03F01F03D8400D4B18608B6940
:100A700003F00F03D35C03F01F03D840094B186049
:100A80000F20FFF7BDFF044618B9FFF7B7FF204658
:100A900010BD0124FBE700BF00440258201E0008DF
:100AA0000000002004000020034A044B11681B785A
:100AB0000B441360704700BFA8040020080000200A
:100AC000014B1868704700BFA8040020014B18684C
:100AD000000C70470010005C074A0002D36800F465
:100AE000E06023F4E0631B041B0C43F0BF6343F49A
:100AF00000330343D360704700ED00E0164B70B540
:100B0000DC684FF0FF36C4F30224C4F10705231D4F
:100B1000042D28BF0425062B06FA05F38CBF033CE1
:100B20000024002821EA030303FA04F306FA04F47C
:100B300022EA040443EA04034FEA0313DBB206DBB0
:100B400000F1604000F5614080F8003370BD00F0B6
:100B50000F00024A1354F9E700ED00E014ED00E045
:100B6000002808DB4209012300F01F0003FA00F00F
:100B7000014B43F82200704700E100E00138B0F17A
:100B8000807F0AD2064BF021064A5860002082F886
:100B90002310072298601A6070470120704700BF39
:100BA00010E000E000ED00E04FF0B04C00232DE934
:100BB000F74F724EE246DFF8D0B10A6832FA03F41A
:100BC00002D103B0BDE8F08F4FF0010E0EFA03FE24
:100BD0001EEA020200F0BD804C6824F01004022CD2
:100BE00014D14FEAD30803F007090F2500EB88085A
:100BF0004FEA8909D8F8204005FA09F524EA0505E5
:100C00000C6904FA09F42C43C8F820404FEA430861
:100C10004FF003094C6809FA08F9056804F0030469
:100C20006FEA090904FA08F409EA05052C4304608F
:100C30004D6825F01005013D012D11D88468CD685F
:100C400009EA040405FA08F525438560446824EAA6
:100C50000E0E4C68C4F300149C4044EA0E04446039
:100C6000C46809EA04098C6804FA08F444EA09042F
:100C7000C4604C68E4006CD5414D03F0030E4FF0A6
:100C80000F08D5F8F4404FEA8E0E44F00204C5F880
:100C9000F440D5F8F44023F0030505F1B04504F025
:100CA000020405F580650194019C08FA0EF4D5F85C
:100CB000089029EA0408334CA0424CD004F5806423
:100CC000A0424AD004F58064A04248D0584548D09C
:100CD00004F50064A04246D004F58064A04244D0EC
:100CE00004F58064A04242D004F58064A04240D064
:100CF00004F58064A0423ED004F58064A0420CBF9D
:100D000009240A2404FA0EF444EA0804AC60D5432A
:100D10004F683468FF034CBF14432C4034604F6865
:100D20007468BF034CBF14432C4074604F68DCF8F8
:100D30000040FF024CBF14432C40CAF800404F68EB
:100D4000DAF80440BF0254BF05EA04022243CCF89B
:100D50000420013331E70024D4E70124D2E7022440
:100D6000D0E70324CEE70424CCE70524CAE7062411
:100D7000C8E70724C6E70824C4E700BF800000587E
:100D80000044025800000258000C025838B5104CBC
:100D9000E36813F0040FE36805D103F00703181AA2
:100DA00018BF012038BD23F007031843E060FFF7A8
:100DB00087FE054663689B0401D50020F2E7FFF734
:100DC0007FFE401BB0F57A7FF4D90120EAE700BF2F
:100DD000004802584B6A2DE9F04733B1B2F1406F39
:100DE00003D08B6A0468013B23618B690C6A002B7A
:100DF00067D00568002C35D08B68EB61CC694B6AF5
:100E000005688F69D1F820C0D1F83480D1F810E09E
:100E10000E68D1E90BA9A4B144EA0A04144344EAD8
:100E2000090444EA08042343CC6843EA0E0343EA76
:100E30000C0323433B434C69334343EA84436B61D4
:100E40002AE04AEA0904144344EA0804234343EA33
:100E50000E0343EA0C033B4333434E6943EA8646A1
:100E60006E612CE04E69CC69D1F80090B604D1F8DF
:100E700024804F6BD1E90BECACB11C43CB6814431D
:100E800044EA090444EA080444EA0E0444EA0C046F
:100E90003C431C4334436C61B2F1406F0FD0036894
:100EA0004A689A610BE043EA0903134343EA0803E3
:100EB00043EA0E0343EA0C033B4333436B61BDE853
:100EC000F08744B303688C68DC61CC69D1F8248076
:100ED00005688E69D1F820C04B6BD1F810E0D1E9DC
:100EE0000B796CB13C43144344EA09042343CC68B6
:100EF00043EA080343EA0E0343EA0C0323439AE759
:100F000047EA09042243134343EA080343EA0E0372
:100F100043EA0C03A0E7CD694B6A7DB12B43CD6A50
:100F2000046813432B430D6B2B434D6B2B43CD6850
:100F30002B434D6943EA85436361ADE7002BBED087
:100F4000CC6A0068234313430A6B13434A6B134371
:100F50004A6943EA82434361B1E72DE9F041069DC6
:100F600004460F461646984621688A683A4214BFDE
:100F700001220022B24201D1002011E06B1CF4D00A
:100F8000FFF79EFDA0EB0800A84201D8002DEBD191
:100F90000423012084F84130636C43F0010363644F
:100FA000BDE8F0817047000037B50446FFF788FDC3
:100FB0000546002C4FD094F84030012B4DD0012332
:100FC00084F8403094F8412002F0FF033AB984F8E5
:100FD00040302046FFF7E6FF41F28833A3642068E3
:100FE000A1680268013922F4706242EA01222021DC
:100FF00002600022A36C204600932B46FFF7ADFF52
:1010000020BB2168E569E3680A682B43256A22F062
:101010007F422B43656822F0D00243EA0563134305
:101020000B602168D4E905324D681343226943EA15
:1010300002430B4A2A4013434B602268136843F073
:10104000010313600123606484F84130002384F8B5
:10105000403003B030BD0120FBE70220F9E700BFBC
:10106000FEF8E0FF704710B50446A0B190F840309C
:10107000012B12D00268012380F84030136823F05E
:1010800001031360FFF7EEFF0020606484F8410065
:1010900084F8400010BD0120FCE70220FAE72DE9AA
:1010A000F34704468A469146FFF70AFD94F840301C
:1010B0008046012B34D00123022784F8403094F875
:1010C0004160F6B29E4229D100220346CDF800903D
:1010D00020216264204684F84170FFF73EFF0546F8
:1010E000A8B9024651462046FFF774FEDAF82430CC
:1010F0005BB9CDF800904346324639462046FFF7AB
:101100002CFF054618B92368DF6084F8416000238E
:1011100084F84030284602B0BDE8F0873D46F6E747
:101120000225F7E72DE9F341044688461746FFF705
:10113000C7FC94F840300646012B4DD001232568AA
:1011400084F8403094F84100C0B2984242D1002364
:101150006364B8F1000F38D0122384F841302B6952
:101160000133E3622B69C4F824800133A3626B6905
:1011700023F040636B61E36A9BB900973346012219
:1011800002212046FFF7E9FE10B923680222DA6047
:10119000012384F84130002384F8403002B0BDE8D8
:1011A000F08100973346012204212046FFF7D5FE47
:1011B0000028EDD1636A1B7885F82030636A01331B
:1011C0006362E36A013BE362D5E7636C43F00803C3
:1011D0006364E0E70220DEE70220DFE72DE9F34168
:1011E000044617468846FFF76BFC25680646AA6941
:1011F00094F84030012B50D0012384F8403094F80B
:101200004100C0B2984246D100236364B8F1000F98
:101210003CD0222384F841302B690133A3632B692E
:10122000C4F83080013363636B6923F0406343F09B
:1012300080636B6123689A61A36B9BB90097334607
:10124000012202212046FFF788FE10B923680222FE
:10125000DA60012384F84130002384F8403002B082
:10126000BDE8F08100973346012206212046FFF7B2
:1012700074FE0028EDD195F82020236B1A70236BA3
:1012800001332363A36B013BA363D5E7636C43F096
:1012900008036364E0E70220DEE70220DFE72DE9D0
:1012A000F7430446984689461646FFF709FC94F82A
:1012B00040300746012B45D0012384F8403094F894
:1012C0004150EDB29D423BD142230022CDF8008037
:1012D0002021626484F8413003462046FFF73DFE3A
:1012E00040BB2368204632689A62236872685A625B
:1012F0002368B268DA62216833690A6843F48003BC
:1013000022F4400213434FF000620B604946F36839
:10131000C9F82830FFF75EFDCDF800803B462A462D
:1013200008212046FFF719FE20B923680822DA6059
:1013300084F84150002384F8403003B0BDE8F083C6
:101340000220F7E70220F8E7F7B5044617460E46F5
:10135000FFF7B6FB94F840200346012A36D001225D
:1013600084F8402094F84120012A2DD100228221C6
:101370002046626484F84110A16C00912021FFF79F
:10138000ECFD0546D0B922687968136823F008039C
:101390000B4313607B68082B0AD123683A681A63F1
:1013A00010222368DA602268136843F48013136004
:1013B0004FF0406231462046FFF70CFD002384F8D1
:1013C0004030284603B0F0BD0225F7E70225F8E7D4
:1013D000F8B5044608B9012090E00368DD075ED443
:1013E0002368980700F1AC802368DA0623D5AB4B5D
:1013F0001A69996A02F03802082A07D0182A40F0C0
:10140000008101F00302012A40F0FB801B68DB052C
:1014100002D5E369802BDED1FFF758FB41F20303CD
:101420009E4A9842216A00F2E580536823F0F8430F
:1014300043EA816353602368190700F11B81236825
:101440009A0600F1408123685D0722D5944D2B68F0
:1014500043F480732B60FFF733FB06462B68DA05F5
:1014600040F15681A2688D4B012A40F058811A6FD5
:1014700042F001021A67A368002B00F06781FFF7B2
:101480001FFB864D064641F288372B6F9B0740F1C4
:101490005681606A002840F0698100202EE07F4B71
:1014A0001A69996A02F03802102A05D0182A0AD15E
:1014B00001F00302022A06D11B68990390D56368E4
:1014C000002B8DD187E76268744BB2F5803F16D14F
:1014D0001A6842F480321A6063680BB3FFF7F0FABF
:1014E0006E4D064641F288372B689A033FF578AF78
:1014F000FFF7E6FA801BB842F6D90320F8BD3AB9E7
:101500001A6822F480321A601A6822F48022E2E714
:10151000B2F5A02F1A68F4D142F480221A60D7E7FE
:10152000FFF7CEFA5D4D064641F288372B689B03E4
:101530007FF556AFFFF7C4FA801BB842F6D9DCE757
:10154000564B1A69996A12F0380203D0182A1BD137
:101550008E0719D11B685D0703D5E368002B3FF4A4
:101560003AAFFFF7B3FA41F203034C4A98422169BC
:10157000536895BF23F47C3323F0FE4343EA0133E1
:1015800043EA016353602FE7444DE2682B680AB3D6
:1015900023F0190313432B60FFF792FA06462B68DA
:1015A000580711D5FFF792FA41F2030322699842D6
:1015B0006B6895BF23F47C3323F0FE4343EA023388
:1015C00043EA02636B600FE7FFF77AFA801B022899
:1015D000E5D992E723F001032B60FFF771FA064685
:1015E0002B6859077FF500AFFFF76AFA801B0228C6
:1015F000F6D982E7D36823F07C5343EA0163D360D2
:1016000019E7E369254D23B32B6843F080032B6072
:10161000FFF756FA06462B68DF050DD5FFF756FA99
:1016200041F20303226A98420CD86B6823F0F84316
:1016300043EA82636B60FEE6FFF742FA801B0228F2
:10164000E9D95AE7EB6823F07C5343EA0263EB6085
:10165000F1E62B6823F080032B60FFF731FA064692
:101660002B68D8057FF5E7AEFFF72AFA801B022822
:10167000F6D942E76369094DA3B16B6F43F00103EB
:101680006B67FFF71DFA06466B6F9B073FF5D7AEFA
:10169000FFF716FA801B0228F6D92EE700440258FD
:1016A000004802586B6F23F001036B67FFF708FADD
:1016B00006466B6F9F077FF5C2AEFFF701FA801BEE
:1016C0000228F6D919E7A369804D83B12B6843F44A
:1016D00080532B60FFF7F4F906462B6898043FF51A
:1016E000B2AEFFF7EDF9801B0228F6D905E72B68AB
:1016F00023F480532B60FFF7E3F906462B68990427
:101700007FF5A1AEFFF7DCF9801B0228F6D9F4E6DD
:10171000FFF7D6F9801B64287FF6A0AEEDE63AB954
:101720001A6F22F001021A671A6F22F00402A1E672
:10173000052A1A6FF5D142F004021A6797E6FFF7FF
:10174000BFF9801BB8427FF6A0AED6E6FFF7B8F926
:101750005E4D064641F288372B6F98077FF599AEAC
:10176000FFF7AEF9801BB842F6D9C6E6574D2B6994
:1017700003F03803182B7AD02B68022823F08073EB
:101780002B6067D1FFF79CF906462B6899015BD463
:10179000AB6AA26A23F47C7323F003031343E26A67
:1017A00043EA0213AB62636BA26B013B013A5B023B
:1017B00012049BB202F4FE021343226B013AC2F3FD
:1017C00008021343E26B013A120602F0FE42134391
:1017D0002B63EB6A23F00103EB626B6BA26C23F4C7
:1017E0007F4323F0F80343EAC2036B63EB6A226C86
:1017F00023F00C031343EB62EB6A626C23F00203E9
:10180000324C1343EB62EB6A43F48033EB62EB6AD6
:1018100043F40033EB62EB6A43F48023EB62EB6A40
:1018200043F00103EB622B6843F080732B60FFF7FA
:1018300047F9054623689A013FF52FAEFFF740F9B7
:10184000401B0228F6D958E6FFF73AF9801B022818
:101850009BD952E6FFF734F904462B689B017FF5CC
:101860001CAEFFF72DF9001B0228F6D945E601282A
:10187000AA6A2B6B3FF442AE02F00301A06A8142D8
:101880007FF4A9ADC2F30512E16A8A427FF4A3ADE9
:10189000226BC3F30801013A91427FF49CAD626B65
:1018A000C3F34621013A91427FF495ADA26BC3F395
:1018B0000641013A91427FF48EADE06BC3F30663BB
:1018C0000138181A18BF012018E600BF004402585A
:1018D000464B10B51A6902F03802102A00F08480D5
:1018E000182A0CD00AB1424810BD1A68414812F0BB
:1018F000200FF9D01B68C3F3C103D840F4E7996AFD
:10190000986ADA6AC0F305105C6B0028ECD007EE29
:10191000900A02F00102C4F3CC00B7EE006AF8EEC0
:10192000E76A424307EE902A01F00302012AFAEE29
:10193000E97A02D00FD3022A48D01B6BC3F3080305
:1019400007EE103AB8EEC77A77EE277A77EE867A06
:101950009FED296A37E01A68920627D51968254A4B
:10196000C1F3C1011B6BCA40C3F3080307EE102A81
:10197000F8EEC75A85EEA67A06EE903AF8EEE66AD9
:1019800076EEA77A77EE867A184B67EE877A1B6B2E
:10199000C3F34623013307EE103AF8EEC76A87EE29
:1019A000A67AFCEEC77A17EE900A9DE71B6BC3F38D
:1019B000080307EE103AB8EEC77A77EE277A77EE8B
:1019C000867A9FED0E6A86EE267ADDE71B6BC3F3FF
:1019D000080307EE103AB8EEC77A77EE277A77EE6B
:1019E000867A9FED076AEEE706487DE700440258D5
:1019F00000093D000090D0030024744A0024744C78
:101A000020BCBE4B40787D012DE9F0410D460446D7
:101A100010B90120BDE8F081884A136803F00F0374
:101A20008B42C0F0928023685E0700F19A802368A1
:101A300018070BD5824A6069D16901F070018842AC
:101A400004D9D36923F070030343D3612368D90613
:101A50000BD57B4AA069D16901F4E061884204D9C1
:101A6000D36923F4E0630343D36123689A060BD55B
:101A7000734AE069116A01F07001884204D9136A5F
:101A800023F070030343136223689B070BD56C4A52
:101A9000E068916901F00F01884204D9936923F04D
:101AA0000F03034393612368DF0768D423689E070D
:101AB00000F19B80614A136803F00F03AB4200F210
:101AC000A2802368580700F1AA80236819070BD564
:101AD0005B4A6069D16901F07001884204D2D36920
:101AE00023F070030343D3612368DA060BD5544A0D
:101AF000A069D16901F4E061884204D2D36923F47A
:101B0000E0630343D36123689B060BD54C4AE0692D
:101B1000116A01F07001884204D2136A23F0700345
:101B200003431362FFF7D4FE454B464A9B69C3F358
:101B30000323D35C03F01F03D840434B1860434B8F
:101B4000BDE8F0411868FEF75BBF136823F00F0390
:101B50000B431360136803F00F038B427FF459AFFC
:101B600061E7374A2069916901F0700188427FF688
:101B70005EAF936923F070030343936157E7304BE3
:101B8000A1689A6922F470620A439A6161681A68CE
:101B900002291DD112F4003F3FF43BAF1A6941F214
:101BA0008838274E22F007020A431A61FEF788FFA1
:101BB00007463369626803F03803B3EBC20F3FF4A2
:101BC00075AFFEF77DFFC01B4045F2D9032021E72A
:101BD000032902D112F0007FDEE7012902D112F4BD
:101BE000807FD9E712F0040FD6E7154AE0689169C3
:101BF00001F00F018842BFF45DAF936923F00F033A
:101C00000343936156E7136823F00F032B431360DC
:101C1000136803F00F03AB427FF4FBAE51E7084AB1
:101C20002069916901F070018842BFF44EAF936959
:101C300023F070030343936147E700BF0020005285
:101C400000440258201E0008000000200C00002064
:101C5000DFF834D0002103E00C4B5B5843500431D3
:101C60000B480C4B42189A42F6D30B4A02E0002371
:101C700042F8043B094B9A42F9D3FEF783FE00F089
:101C800011F8FEF729FB704700000220401E0008F3
:101C9000000000203C0400203C040020D004002070
:101CA000FEE7000070B50D4E0D4D761BB61006D048
:101CB0000024013455F8043B9847A642F9D1094E57
:101CC000094D761B00F0A0F8B61006D000240134B0
:101CD00055F8043B9847A642F9D170BD341E000860
:101CE000341E00083C1E0008341E0008024B13B1CD
:101CF000024800F005B87047000000000D1D000804
:101D0000002301461A46184600F01EB838B50A4CA2
:101D10000A4D641BA4100AD004F18043013B05EB7B
:101D20008305013C55F804399847002CF9D1BDE8EA
:101D3000384000F06FB800BF401E00083C1E00088D
:101D4000704700BF704700BF2DE9F8432B4D064692
:101D5000286898460F469146FFF7F2FF284B1C680B
:101D6000D4F84831002B3DD05A681F2A0DDC02F10F
:101D7000010C16BB0232C3F804C0286843F8227075
:101D8000FFF7E0FF0020BDE8F8831E4B7BB34FF464
:101D9000C870AFF30080034648B3D4F8482100214F
:101DA000C0E900214FF0010CC4F848010A46C0F810
:101DB0008811C0F88C11002EDCD003EB82010124C5
:101DC000C1F88890D3F8880194402043022EC3F8CC
:101DD0008801C1F80881CDD1D3F88C110C43C3F828
:101DE0008C41C7E704F5A673C4F84831BCE72868FE
:101DF000FFF7A8FF4FF0FF30C5E700BF3804002011
:101E0000301E000800000000F8B500BFF8BC08BC98
:101E10009E467047F8B500BFF8BC08BC9E467047A8
:101E20000000000001020304010203040607080980
:101E300010000020ED1C0008BD02000899020008F7
:101E40000090D0030090D0030100000010000000BB
:101E500000000000FC02002064030020CC030020EE
:101E60000000000000000000000000000000000072
:101E70000000000000000000000000000000000062
:101E80000000000000000000000000000000000052
:101E90000000000000000000000000000000000042
:101EA0000000000000000000000000000000000032
:101EB0000000000000000000000000000000000022
:101EC0000000000000000000000000000000000012
:101ED0000000000000000000000000000000000002
:101EE00000000000000000000000000000000000F2
:101EF00000000000000000000100000000000000E1
:101F00000E33CDAB34126DE6ECDE05000B000000A5
:101F100000000000000000000000000000000000C1
:101F200000000000000000000000000000000000B1
:101F300000000000000000000000000000000000A1
:101F40000000000000000000000000000000000091
:0C2270000000000000000000AC04002092
:0200000490006A
:100000000000082405BB0090B33D0090B53D009072
:10001000B73D0090B93D0090BB3D0090000000004E
:1000200000000000000000000000000071AC009023
:10003000BD3D00900000000001AD009021A60090A1
:1000400055BB009055BB009055BB009055BB009030
:1000500055BB009055BB009055BB009055BB009020
:1000600055BB009055BB009055BB009055BB009010
:1000700055BB009055BB009055BB009055BB009000
:1000800055BB009055BB009055BB009055BB0090F0
:1000900055BB009055BB009055BB009055BB0090E0
:1000A00055BB009055BB009055BB009055BB0090D0
:1000B00055BB009055BB009055BB009055BB0090C0
:1000C00055BB009055BB009055BB009055BB0090B0
:1000D00055BB009055BB009055BB009055BB0090A0
:1000E00055BB009055BB00900000000055BB009030
:1000F00055BB009055BB009055BB009055BB009080
:1001000055BB009055BB009055BB009055BB00906F
:1001100055BB009055BB0090C13D009055BB009071
:1001200055BB009055BB009055BB009055BB00904F
:1001300055BB009055BB009055BB009055BB00903F
:1001400000000000000000000000000000000000AF
:1001500055BB009055BB009055BB009055BB00901F
:1001600055BB009055BB009055BB009055BB00900F
:1001700055BB009055BB009055BB009055BB0090FF
:1001800055BB009055BB009055BB009055BB0090EF
:1001900055BB009055BB009055BB009055BB0090DF
:1001A000CD3D009055BB0090D93D009055BB0090CF
:1001B00055BB009055BB009055BB009055BB0090BF
:1001C00055BB009055BB009055BB009055BB0090AF
:1001D00055BB009055BB009055BB009055BB00909F
:1001E00055BB009055BB009055BB009055BB00908F
:1001F00055BB009055BB009055BB009055BB00907F
:1002000055BB009055BB009055BB009055BB00906E
:1002100055BB009055BB009055BB009055BB00905E
:1002200055BB0090E53D0090F13D009000000000BE
:1002300055BB009055BB00900000000055BB0090DE
:1002400055BB009055BB009055BB009055BB00902E
:1002500055BB009055BB009055BB009055BB00901E
:1002600055BB009055BB009055BB009055BB00900E
:1002700055BB009055BB009055BB0090000000009E
:1002800055BB009055BB009055BB0090000000008E
:080290000000000055BB0090C6
:1002A00010B5054C237833B9044B13B10448AFF3B0
:1002B00000800123237010BD805D00240000000039
:1002C000846C029008B5034B1BB103490348AFF39C
:1002D000008008BD00000000845D0024846C029052
:1002E0007BB972B90029BEBF00204FF0004106E083
:1002F00008BF00281CBF6FF000414FF0FF3000F036
:10030000A5B9ADF1080C6DE904CE002909DB002B7D
:100310001ADB00F035F8DDF804E0DDE9022304B073
:100320007047404261EB4101002B1BDB00F028F8D5
:10033000DDF804E0DDE9022304B0404261EB410155
:10034000524263EB43037047524263EB430300F0B6
:1003500017F8DDF804E0DDE9022304B0404261EB68
:1003600041017047524263EB430300F009F8DDF8A6
:1003700004E0DDE9022304B0524263EB430370471B
:100380002DE9F047089E04468846002B4BD18A424F
:10039000154667D9B2FA82F24AB1C2F1200701FAD2
:1003A00002F320FA07F7954047EA030894404FEA22
:1003B000154E230CB8FBFEF71FFA85FC0EFB1788C1
:1003C00043EA084307FB0CF1994209D9EB1807F1FE
:1003D000FF3080F01B81994240F21881023F2B448C
:1003E0005B1AA4B2B3FBFEF00EFB103344EA0344E5
:1003F00000FB0CFCA44509D92C1900F1FF3380F057
:100400000781A44540F2048102382C4440EA0740A9
:10041000A4EB0C0400271EB1D4400023C6E900431E
:100420003946BDE8F0878B4209D9002E00F0EB80F9
:100430000027C6E9000138463946BDE8F087B3FA1F
:1004400083F7002F47D18B4202D3824200F2FA8019
:10045000841A61EB030301209846002EE0D0C6E920
:100460000048DDE702B9FFDEB2FA82F2002A40F06E
:100470008F80491B4FEA154E1FFA85F80127B1FB03
:10048000FEFC230C0EFB1C1143EA014308FB0CF19C
:10049000994207D9EB180CF1FF3002D2994200F2D1
:1004A000CD808446591AA3B2B1FBFEF00EFB1014A6
:1004B00043EA044408FB00F8A04507D92C1900F1D1
:1004C000FF3302D2A04500F2B6801846A4EB080420
:1004D00040EA0C409FE7C7F1200CBB4022FA0CFE1B
:1004E0004EEA030E01FA07F420FA0CF521FA0CF398
:1004F0004FEA1E482543B3FBF8F92C0C08FB1933CF
:100500001FFA8EFA44EA034309FB0AF49C4202FAFA
:1005100007F200FA07F10BD91EEB030309F1FF30D4
:1005200080F087809C4240F28480A9F102097344E4
:100530001B1BADB2B3FBF8F008FB103345EA0344D4
:1005400000FB0AFAA24508D91EEB040400F1FF33B0
:100550006BD2A24569D90238744440EA0940A0FB35
:100560000289A4EB0A044C45C2464B4654D351D0F1
:10057000002E69D0B1EB0A0564EB030404FA0CFC0D
:10058000FD40FC404CEA0505C6E90054002747E75A
:10059000C2F1200320FA03F7954001FA02F021FA94
:1005A00003F34FEA154E3843010CB3FBFEF71FFA75
:1005B00085F80EFB173341EA034107FB08F38B4232
:1005C00004FA02F407D9691807F1FF3C2FD28B42D5
:1005D0002DD9023F2944CB1A81B2B3FBFEF00EFBAA
:1005E000103341EA034100FB08F38B4207D9691835
:1005F00000F1FF3C17D28B4215D902382944C91AA1
:1006000040EA07473BE73746304609E70746E7E653
:100610001846FBE64145ABD2B8EB020A69EB0E0285
:1006200001381346A4E76046E9E7184695E76746B0
:10063000D1E781467CE702382C4447E7ACF1020C55
:100640002B442FE7384608E73746E9E6704700BFF6
:1006500001F0FF01102A2BDB10F0070F08D010F873
:10066000013B013A8B422DD010F0070F42B3F6D177
:10067000F0B441EA012141EA014122F007047FF090
:1006800000070023F0E80256083C85EA010586EAE7
:10069000010685FA47F5A3FA87F586FA47F6A5FA23
:1006A00087F68EB9EED1F0BC01F0FF0102F007022F
:1006B00032B110F8013B013A83EA010313B1F8D1DA
:1006C0000020704701387047002D06BF35460338BB
:1006D000073815F0010F07D1013015F4807F02BFF4
:1006E000013015F4C03F0130F0BC0138704700BF45
:1006F000704704387047704710B50446102124F045
:1007000043FA204610BDA0F10400F5E70022C160C5
:100710008260044A10B502F108042032046042608D
:1007200010BD00BFDC6C0290704770477047704787
:1007300070477047034B10B50446036000F013F98F
:10074000204610BD0C6D029010B50446FFF7F2FF75
:100750004FF42171204624F017FA204610BD000006
:1007600010B5044600F0E2F9014B2046236010BDAD
:100770000C6D029000F0F8B870470000034B10B504
:100780000446036000F098FB204610BD486D0290BF
:1007900010B50446FFF7F2FF4FF49C71204624F099
:1007A000F3F9204610BD000010B5044600F00EFC21
:1007B000014B2046236010BD486D029000F07DBBC8
:1007C000704704387047704710B50446102124F074
:1007D000DBF9204610BDA0F10400F5E70022C1605E
:1007E0008260044A10B502F10804203204604260BD
:1007F00010BD00BF746D0290002202607047704708
:10080000704700F598730868496803C370477047DC
:1008100000F046BD10B504464FF4AE7124F0B4F9B3
:10082000204610BD10B50446D0F85801FFF7E7FF89
:100830002046BDE8104011F0C1BB10B50446D0F809
:10084000400158B10368DB68984738B1D4F84001DB
:1008500003689B6898470023C4F8403110BD00002E
:1008600010B5044600F0E0FC014B2046236010BDAB
:10087000A46D029090F8252012B103685B691847B7
:1008800070470020704781807047C18070470181A8
:100890007047418170477047704770477047704795
:1008A000C388D21A8388C91A036812B209B210B475
:1008B0005DF8044B5B6D18474FF6FF7383814FF073
:1008C000FF3303621368C3611060704790F82520FE
:1008D0001AB190F8242002B1186070477047704731
:1008E000704730B585B00368044601816D46014606
:1008F000D3F884303C342846984795E8070084E8CC
:10090000070005B030BD30B585B0036804464181AD
:100910006D460146D3F884303C342846984795E824
:10092000070084E8070005B030BD00220280428045
:100930008280C280704780F83610704770B50368B7
:10094000044615461B6B98472368294620465B6E74
:10095000BDE8704018470020704708B5FFF78AFFD0
:1009600008BD806C704770477047704710B50446EB
:10097000082124F009F9204610BD10B504464C2189
:1009800024F002F9204610BD10B504464FF4217141
:1009900024F0FAF8204610BD70B5036804468DB205
:1009A0005E6B114B1B682BB9104B6C21104A114820
:1009B00025F072F91049828D0988914203D80F4BB6
:1009C0006D210B4AF3E713F812200D4B1B6853F807
:1009D000220003681B6B9847291A3346204609B248
:1009E000BDE87040184700BF34150224936E029092
:1009F000906F0290D56E029038150224166F029007
:100A00003C15022400224FF0FF318260C0E9002132
:100A1000704700000A4A026000228280C280028180
:100A200042818281C28102824282C2610284428406
:100A300080F82420C0E90522012280F82520704793
:100A4000FC9B029070B50368044615461B6B9847E3
:100A50002368294620465B6BBDE87040184770B597
:100A600004461E46BDF91050FFF7ECFF23683146DF
:100A700020469A6B9047236829462046DB6BBDE8E9
:100A80007040184710B504462622002125F07FF952
:100A90002046FFF7BFFF044B20462360FF2384F866
:100AA00026300023A36210BD509A029010B5044670
:100AB0002622002125F06BF92046FFF7ABFF0C4BF7
:100AC0004FF6FF724FF47F0123602046094BA28549
:100AD000A3620023A4F8402084F8383084F8393029
:100AE000A387E387A4F842206364C4E90C3110BDF6
:100AF000C0990290F86D029038B504460D46262242
:100B0000002125F044F92046FFF784FF064B2046DC
:100B1000294623602B88E384FF2384F828300EF0D5
:100B2000E0FC204638BD00BFB89A02902DE9F04F96
:100B300004468FB0002513F0F1F9A146D14BE563CF
:100B400004F1980849F8403B4846FFF79BFF04F141
:100B50006C0304F1E0070DF1380A18460793FFF71C
:100B600091FF4046FFF7A2FF4FF6FF733846C64E8F
:100B70002AF8083D5146FFF7BFFFC44B5146C4F861
:100B80000C51C4F8E0304FF0FF3384F8165104F5EF
:100B9000097BC4F810314FF0010384F81751A4F811
:100BA000143104F58E7384F8185106934FF0FF3317
:100BB0000698ADF83030FFF79FFF04F5A473184690
:100BC0000493FFF773FF04F5C87318460593FFF706
:100BD0006DFF04F5EC7318460393FFF767FFC4F845
:100BE000D861C4F820525846FFF760FF4FF488736D
:100BF0002A464846C4F82462294600934FF4F0730D
:100C0000C4F86C52261DFFF72AFF4FF07F43494678
:100C10003046A3660DF120090AF0D6FF4FF4887321
:100C20002A46294600934FF4F0730798FFF717FF01
:100C3000974B07993046C4F894300AF0C5FF1B2241
:100C400040466321FFF7FEFE4FF0FF334146484622
:100C5000C4F8C830A4F8CC500EF01AF804F1D4034C
:100C600099E8070083E807008A4B404651460C93F9
:100C70000623ADF834300EF0A5FA414630460AF0AE
:100C8000A3FF56223846DFF82C821146FFF7DAFE22
:100C90000222384601210DF0FFFE384612210DF0E8
:100CA0000EFF0123384629461A460DF04DFE3946FF
:100CB000304605270AF088FF56224FF48D710698BA
:100CC000FFF7C0FE4FF0030251460698ADF8302002
:100CD0000EF007FC069930460AF076FFAE224F214F
:100CE0000498FFF7AFFE4FF0FF3204994846C4F86E
:100CF0007821A4F87C510DF0CBFF04F5C27399E87C
:100D0000070083E80700634B514604980C93ADF845
:100D100034700EF057FA049930460AF055FFAE22AF
:100D20004FF482710598FFF78DFE4FF0FF32059961
:100D30004846C4F8C021A4F8C4510DF0A9FF04F539
:100D4000E67399E8070083E80700524B514605987F
:100D50000C930423ADF834300EF034FA0599304684
:100D60000AF032FFCC226B210398FFF76BFE4FF0A5
:100D7000FF33A4F80C524846C4F80832D4F8D831EE
:100D80000399D3F88430984704F5057399E8070070
:100D900083E8070004F51C730493D8F800302BB9DE
:100DA0003D4B60213D4A3E4824F076FF3D4B1B8879
:100DB000022B03D83C4B6121384AF4E73B4B02211C
:100DC000186800F0C1FE39460346394A049814F009
:100DD00057FD049A0398C4F820220EF0D3F94FF07F
:100DE00003012C4AADF83410514603980C920EF0D2
:100DF000E9F9039930460AF0E7FECC224FF4A071DE
:100E00005846FFF71FFE4FF0FF31D4F82432484612
:100E1000C4F854125946A4F85852D3F8843098476D
:100E200004F5187399E8070083E80700D8F8003044
:100E300004F27A29002BB3D01A490B88002BB9D0C1
:100E40001A4B2946186800F07FFE39460346184AB7
:100E5000484614F015FD5846C4F86C920EF092F90D
:100E60000C4A4FF00103514658460C92ADF834300D
:100E70000EF0A8F9304659460AF0A6FE20460FB0FB
:100E8000BDE8F08F5C6F0290086E0290449902906A
:100E9000EBA67FFFF86D0290936E0290CB6F0290ED
:100EA000D56E029038150224166F02904015022468
:100EB000906E02903415022470477047704730B42A
:100EC000C568034644686A10ED079B6804EB02009E
:100ED00048BFA25830BC48BFD358184743682BB10D
:100EE00083682BB9C06800F001007047184670474E
:100EF0000120704710B50446102123F045FE20461E
:100F000010BD10B504464FF49C7123F03DFE204601
:100F100010BDE030884208B505D110F0B3FFBDE840
:100F2000084000F0CDB908BD70B503680446154609
:100F30009B6B9847236829462046DB6BBDE87040D1
:100F400018470000F8B51A4B0646018F1B888B42E4
:100F500029D9184B1B682BB9174B6C21174A184815
:100F600024F09AFE13F81120164B1B6853F82250F8
:100F7000154B186800F0E8FD2B68074628469B6B68
:100F800098472B68044639469B6C2846984714FBC3
:100F900000F42B683946A4B228465B6A984720447F
:100FA000A6F84600F8BD0023A0F84630FAE700BFD7
:100FB0003815022434150224936E0290507002906A
:100FC000D56E02903C150224401502242DE9F04F05
:100FD000044689B0002512F0A1FF2646634B04F1B8
:100FE0006C0AE56346F8403B3046FFF74BFD504640
:100FF000FFF748FD012304F1E007DFF884B184F82E
:10100000BD304FF47F025A4B3846C4F8CC2004F16F
:101010000408C4F898304FF6FF73A4F89C5004F10C
:101020009809A4F8C430A4F8D830A4F8DA30A4F8A9
:101030009E50A4F8A050A4F8A250A4F8A450A4F87C
:10104000A650A4F8A850A4F8AA50C4F8B450A4F824
:10105000B850A4F8BA5084F8BC50C4F8C0B0C4F872
:10106000C85084F8D05084F8D150A4F8D450A4F8D3
:10107000D650C4F8DC50C4E92B550EF069FB3D4B4B
:101080002A462946C4F8283130463B4BC4F82C4147
:10109000C4F83031C4F83451FFF7D4FC4FF48872EF
:1010A00030464FF4F071FFF73FFF4FF07F4331467A
:1010B0004046A3666E460AF087FD2A4629465046FA
:1010C000FFF7C0FC4FF4887250464FF4F071FFF701
:1010D0002BFF2A4B51464046C4F894304FF0FF3A5C
:1010E0000AF072FD1B2248466321FFF7ABFC49461C
:1010F0003046C4F8C8A0A4F8CC500DF0C9FD04F1E6
:10110000D40396E8070083E80700082306A94846A9
:10111000CDF818B0ADF81C300EF054F849464046F2
:101120000AF052FD384679229921FFF78BFC06AA76
:1011300005A93846ADF81450ADF818500EF09FF8D8
:1011400007233846A4F81831FFF7FCFE04F5947322
:101150004046C4F81CA1C4F820A13946C4F808319F
:101160000AF032FD204609B0BDE8F08F24700290ED
:10117000C09902900C700290130F0090EBA67FFFB5
:10118000F86D029070477047704741607047704734
:101190000123037270477047704710B4C468034658
:1011A00041686210E4079B6801EB020048BF8A585F
:1011B0005DF8044B48BFD358184743682BB1836888
:1011C0002BB9C06800F00100704718467047012035
:1011D000704710B504460C2123F0D6FC204610BD04
:1011E00010B504464FF4AE7123F0CEFC204610BD7E
:1011F00010B50446102123F0C7FC204610BD10B5E1
:1012000010F040FE0368BDE81040DB6B184700009B
:10121000044B1B6893F858200AB1D86C00B9986841
:10122000704700BFDC140224F8B5044617460E468A
:1012300010F038FF164B0025C4F854711C60294685
:10124000144BC4F83C512360134BC4F84051C4F80C
:101250004431124BC4F848511868C4F84C51C4F8D2
:101260005051C4F8586103689B689847284600F0BD
:1012700031FCFFF7CDFF1BF05CFBFFF7C9FF1BF054
:10128000D3FBFFF7C5FF1BF0DBFB2046F8BD00BF1B
:1012900030150224AC70029094700290DC14022489
:1012A000064BC0F84801C0F84C310023C0F850315B
:1012B00000F5A273C0F84031704700BF21140090C0
:1012C000064BC0F84801C0F84C310023C0F850313B
:1012D00000F5A273C0F84031704700BF8915009037
:1012E0002DE9F047074690689946884603681546F9
:1012F000DDF820A01B6A9847B0F59C7F05D2424BD1
:10130000A321424A424824F0C7FC686803681B6A6C
:1013100098470F2803D83F4BA4213C4AF2E7E868DE
:1013200003681B6A98470B2803D83B4BA521374A13
:10133000E8E710F0A7FD043010F0E2FDD9F8000056
:1013400010B10368DB689847D9F8000010B1036852
:101350001B689847386810B103685B699847D8F8EC
:10136000000010B103685B689847386810B10368E3
:101370001B689847D8F8000010B103689B6898472D
:10138000E868002103685B6A9847044620B100239F
:1013900043600372214B0360A868002103685B6A05
:1013A0009847064608B1FFF7FFF96868002103680F
:1013B0005B6A9847054610B13146FFF70FFAC9F846
:1013C0000040C8F800503E60E5B12B1DCAF800305F
:1013D0003046C5F808A03368F563DB6898472B688A
:1013E00028461B6898472146304612F043FF236881
:1013F00020461B699847236820465B699847284622
:10140000BDE8F0872B46E1E71C7102903B74029027
:10141000AA710290EB7102908E720290007102909C
:1014200007B5D0F8583100F59E710093044BD0F801
:1014300054210448FFF754FF03B05DF804FB00BFDC
:1014400024150224201502242DE9F0470746906850
:101450009946884603681546DDF820A01B6A984720
:10146000B0F5217F05D2424BA321424A424824F0E5
:1014700013FC686803681B6A98470F2803D83F4B22
:10148000A4213C4AF2E7E86803681B6A98470B28E6
:1014900003D83B4BA521374AE8E710F0F3FC0430B2
:1014A00010F02EFDD9F8000010B10368DB689847F2
:1014B000D9F8000010B103681B689847386810B16C
:1014C00003685B699847D8F8000010B103685B684F
:1014D0009847386810B103681B689847D8F800002F
:1014E00010B103689B689847E868002103685B6A4D
:1014F0009847044620B1002343600372214B0360E8
:10150000A868002103685B6A9847064608B1FFF7A0
:1015100027F96868002103685B6A9847054610B19F
:101520003146FFF7F3F8C9F80040C8F800503E60B4
:10153000E5B12B1DCAF800303046C5F808A0336865
:10154000F563DB6898472B6828461B689847214657
:10155000304612F08FFE236820461B6998472368A7
:1015600020465B6998472846BDE8F0872B46E1E7AF
:101570001C71029031730290AA710290EB7102907B
:101580008E7202900071029007B5D0F8583100F5C4
:101590009E710093044BD0F854210448FFF754FF88
:1015A00003B05DF804FB00BF2415022420150224BB
:1015B00013B5002249B102AB019203F8052D026870
:1015C000946801AAA04702B010BD0846FBE7C08995
:1015D0007047008A7047C088704780887047807A5B
:1015E00000F07F007047807AC00970470020704784
:1015F0009FED010A704700BF00000000406A70477D
:10160000806A7047704710B58A880B88D20A4C8868
:10161000C16943EA044351F82200184410BD10B5D3
:10162000C2B1137BB3B1547BD27A240204F4E064D8
:101630001443026A98B202EB840213888B4202D1EF
:1016400092F9020010BD05D80138043280B200289A
:10165000F3D1F7E70020F5E710B504462C2123F07D
:1016600093FA204610BD000030B58BB00446BDF89B
:1016700060500895BDF85C5007959DF85050069550
:101680009DF84C5005959DF8485004959DF84450A0
:1016900003959DF8405002959DF83C500195BDF88A
:1016A0003850009512F040FA064B20462360159BF7
:1016B000E361169B2362199B63621A9BA3620BB0C2
:1016C00030BD00BF5075029030B5184D8FB02C78EA
:1016D000BFF35B8F14F0010424D1284623F02BFACA
:1016E00000B3134B012213490A9405941248CDE923
:1016F0000B433F230993114B0893114BCDE906434C
:101700000423CDE9033228230D220093CDE90144BF
:10171000FFF7AAFF284623F01AFA0A4A0A490648A0
:1017200023F02DFA04480FB030BD00BF9C5D0024AB
:10173000B075029048002090A05D002438A502906A
:1017400024A50290000000240516009030B5184D25
:101750008FB02C78BFF35B8F14F0010424D128469E
:1017600023F0E9F900B3134B052213490A940194BD
:101770001248CDE90B433F230993114B0893114BBA
:1017800007930123CDE9054304930423CDE90243E4
:101790001E230093FFF768FF284623F0D8F90A4A72
:1017A0000A49064823F0EBF904480FB030BD00BFEA
:1017B000CC5D0024B075029000012090D05D002423
:1017C00040A5029028A50290000000240516009074
:1017D00030B5174D8FB02C78BFF35B8F14F0010438
:1017E00022D1284623F0A7F9F0B13F230122114965
:1017F0000993114B0A940893104B05941048CDE9B6
:1018000006430423CDE903320A23CDE90B440093B8
:10181000CDE90144FFF728FF284623F098F9094A4B
:101820000949074823F0ABF905480FB030BD00BFA8
:10183000FC5D0024480120901CA502902CA502907C
:10184000005E0024000000240516009030B5184DFD
:101850008FB02C78BFF35B8F14F0010425D128469C
:1018600023F069F908B3134B012213490A94059434
:101870001248CDE90B433F230993114B0893114BB9
:10188000CDE906430423CDE9033219231122009345
:101890001E23CDE90144FFF7E7FE284623F057F960
:1018A000094A0A49054823F06AF904480FB030BDD7
:1018B0002C5E0024B075029058012090305E002408
:1018C00020A5029034A50290000000240516009087
:1018D00010B5002404600C6014601C6010BD000092
:1018E00030B5174D8FB02C78BFF35B8F14F0010427
:1018F00022D1284623F01FF9F0B13F2301221149DC
:101900000993114B0A940893104B05941048CDE9A4
:1019100006430423CDE903321423CDE90B4400939D
:10192000CDE90144FFF7A0FE284623F010F9094A4B
:101930000949074823F023F905480FB030BD00BF1F
:101940005C5E00244415209030A502903CA50290D6
:10195000605E00240000002405160090704710B55A
:101960000446042123F010F9204610BD08B50429CF
:1019700018D8DFE801F003070B0F130000F01CF884
:10198000006808BD00F018F84068FAE700F014F8A5
:101990008068F6E700F010F8C068F2E700F00CF895
:1019A0000069EEE70020ECE700487047D479029028
:1019B0000420704709207047004870478C5E00245F
:1019C00010B5084CFFF7C2FE2060FFF77DFE606097
:1019D000FFF7FEFEA060FFF783FFE060FFF736FF32
:1019E000206110BD8C5E00240020704700207047ED
:1019F0000EB403B503AB002153F8042B019311F08F
:101A000019FB02B05DF804EB03B070470CB407B5E6
:101A100004AB53F8042B019311F00CFB03B05DF8F9
:101A200004EB02B07047000010B5436C044673B37A
:101A3000038F2BB9184BC521184A194824F02CF9EB
:101A4000C38E00EB43035B8C0BB313F071F9238F50
:101A5000012B03D8134BCB21134AEEE7E28E40F65D
:101A60003F10531C9BB2092B194688BFA3F10A01F2
:101A700004EB4101498C814209D10A2B04EB42025B
:101A800028BF0023508C04EB430358845184204624
:101A9000BDE8104013F04EB8247A0290517B0290BA
:101AA0002D7A0290717A02907F7A029013F00BB82F
:101AB00010B586B002AC84E806001A460AAB21468F
:101AC00005930193099B0093089B0FF079FD06B0E5
:101AD00010BD000038B5D8B9114B12481B68124927
:101AE000BBB11A689C681A441C4402605A681A44C4
:101AF0000A606CB10D4B00221A80FFF75DFF0546AE
:101B0000FFF758FF0A4B1C600A4B1D600A4B1880F8
:101B100038BD0A4B03600A4B0B600A4B1C68E8E7B0
:101B2000A05E0024A45E0024A85E0024AC5E002415
:101B3000341502243C1502243815022490152090F7
:101B4000541520908C152090044B1B6853F82100ED
:101B5000034B1B6803EB4000704700BFA85E0024E6
:101B6000A45E0024012380F8781080F87930704753
:101B7000704700207047000041640031024B18BFDD
:101B800001211970704700BFDB1402247047002048
:101B90007047836B0BB10846184770474FF6FF70CC
:101BA0007047406803689B6918477047704700207A
:101BB0007047B1F90430838001207047704780F886
:101BC0002610704790F82600704710B50022B1F932
:101BD0000840B1F90A10028042808480C18010BDA3
:101BE0000022028042808280C28070470177704765
:101BF00080ED080A704780F82410704780F825109F
:101C0000704701207047983070478C30704784309F
:101C100070470000034B902283F85A2383F858231F
:101C2000704700BF00E100E0094A0A49D3680A484A
:101C3000C3F30A03013B9BB20B801169C1F30A0194
:101C4000013901801364536B43F001035363704700
:101C500000100050E65E0024E45E0024014B986A08
:101C6000704700BF84100050024B0122996243F874
:101C7000602C704784100050704770477047704761
:101C8000242303FB0101002381F82430704780F8EE
:101C90002C10704710B50446302122F075FF204605
:101CA00010BD10B504462C2122F06EFF204610BD59
:101CB00010B50446BC2122F067FF204610BD00008D
:101CC00010B531B90A4B40F2FF210A4A0A4823F005
:101CD000E3FFC0E90F120032084918BF01220A7061
:101CE00019460268BDE81040D2F89020104700BFA6
:101CF000C07E02908A8C0290F87E0290DA14022450
:101D000008B5094B1B888B4203D8084B1B889342AC
:101D100005D9074BA321074A074823F0BDFF074B0E
:101D20001980074B1A8008BDD0140224D214022453
:101D30005D7E0290478C0290F87E0290D6140224B9
:101D4000D814022408B531B1044B4FF49271044AFF
:101D5000044823F0A1FF90F8250008BD207D0290E3
:101D6000DE810290347D029010B531B1064B4FF404
:101D70008F71064A064823F08FFF406811460368BA
:101D8000BDE810401B6B1847207D02902988029007
:101D9000347D029008B531B1044B4FF48B71044A85
:101DA000044823F079FFC06808BD00BF207D029081
:101DB00070890290347D029070B504460D4629B1B9
:101DC0000D4B5F210D4A0E4823F066FF4068114617
:101DD0000368DB689847606803689B6A98472368D4
:101DE000E060294684F8285020465E6A01222B468E
:101DF000B446BDE870406047207D0290CA850290DD
:101E0000347D02902DE9F041044617460D4629B174
:101E10000E4B4F210E4A0F4823F03EFF40683946D3
:101E2000026896681A46B047606803689B6A9847DC
:101E30002368E060294684F8285020465E6A012223
:101E40002B46B446BDE8F041604700BF207D0290BC
:101E500056840290347D029008B529B1054B41218A
:101E6000054A064823F018FF81600161C0E9053288
:101E700008BD00BF207D029001830290347D029056
:101E800038B504460AF089F923689D6E0FF0FAFF11
:101E900001462046A8472368064A2046D3F88C50BE
:101EA0000023A2F57F31A8476268034B5A64034AB6
:101EB000536038BD00FC03D0A45F0024B45E00244E
:101EC0000AF052B90AF05CB90AF018B90AF087BAF8
:101ED00010B504460AF0DEFE23682046D3F8BC3075
:101EE000BDE8104018470AF03BBA90F87A301BB1B1
:101EF000406803681B6818471846704710B590F88B
:101F0000784090F834100C4B8C421A7809D03AB9CA
:101F10000A490B4A08881488108001220C801A7024
:101F200010BD002AFCD0064A0449148808880C8099
:101F300010800022F3E700BFD4140224D21402243C
:101F4000D0140224134A0023F0B5C2F88430BFF342
:101F50004F8FD2F8803043F6E076C3F3C904C3F361
:101F60004E33A5075B0103EA060C284621464CEADE
:101F70000007013900F14040C2F874724F1CF6D1DD
:101F8000203B13F1200FEED1BFF34F8FBFF36F8FC4
:101F9000F0BD00BF00ED00E0034B5B69DB0301D542
:101FA000FFF7D0BF704700BF00ED00E0034B5B6957
:101FB000DB0301D5FFF7C6BF704700BF00ED00E0AF
:101FC00070B5044629B1274B6F21274A274823F0D3
:101FD00063FE052A2BD8DFE802F003252B30373FBC
:101FE000406803681B69984708B3012384F82530CB
:101FF000002384F82630A360236194F82730B3B916
:102000006468236820469B6A9847236805462046F3
:10201000DB6A984785420AD1236820469B69BDE860
:1020200070401847002380F8253080F8263070BDB6
:10203000C3610023A3602361F9E7C361012380F832
:10204000263080F82830F4E70023012280F825307C
:1020500080F82630C261EDE7003318BF012380F815
:102060002730E4E7207D0290377F0290347D029094
:102070002DE9F34105461646984629B1164BEA214B
:10208000164A174823F008FE406803681B69984702
:10209000F8B1144C012120680AF05CFE4146074665
:1020A000684611F08DF968460FF054FD0E4B6868D4
:1020B0001B88BDF90210BDF9002003FB0122016855
:1020C00007EB4202CD693146A847206803681B6BC5
:1020D000984702B0BDE8F081207D0290BE8A029050
:1020E000347D0290DC140224D614022408B590F842
:1020F000243033B1084B40F26D11084A084823F0F0
:10210000CBFD012280F82420184681F83430CB869C
:102110000B870B6308BD00BF737D02900987029097
:10212000347D0290F8B5044629B13F4BAA213F4ABD
:102130003F4823F0B1FD90F825301BB990F82630C8
:10214000002B6FD03B4B00271B6893F86B10236963
:1021500084F826700B44236194F82830002B54D067
:102160001368104665685B699847E6692B682EB36B
:1021700031465B6A284698472B68E6692846DB6A41
:1021800098478642E7612CBF002601262B68284627
:102190009B6A9847A368E0600133A360A069D4E913
:1021A00004325A43A36843439A4239D994F82C1015
:1021B00069BB012184F828103046F8BD226A62B15B
:1021C0002846D3E909739847216A01442846B8474D
:1021D000A368226A26621344A36094F827602B68E0
:1021E00026B19B69284698470646CFE79B6A284652
:1021F00098472B6807462846DB6A9847874201D2F2
:102200002B68EEE784F82560C0E70126C6E7D31AFD
:10221000B3FBF0F30BB92362CBE7013B2362C9E7C1
:102220000021C7E70126C7E7207D0290A480029025
:10223000347D0290DC140224034B4FF080629A60DC
:102240004FF080729A60704700E100E0084B4FF059
:102250008062C3F88820BFF34F8FBFF36F8F4FF0BA
:102260008072C3F88820BFF34F8FBFF36F8F704722
:1022700000E100E0002370B583800646104B114D4D
:1022800003602A6892F8581009B1D06C00B99068C0
:102290000368DB6A98472B68B0FA80F4D86C64094D
:1022A00028B10368DB6A9847002808BF01242CB9CD
:1022B000054B2C21054A064823F0EEFC304670BD44
:1022C000047C0290DC140224A37D02900E8C029008
:1022D000017E029070B5284E3578BFF35B8F15F004
:1022E000010547D1304622F026FC002842D0234C7D
:1022F000234B04F134002561E58425856585A5859A
:10230000C4E90035C4E9025511F051FB04F158004D
:102310000CF0D6FA1B4B2046A3651B4B40F8843BC0
:10232000FFF7A8FF194B3046C4F89050C4F884302A
:102330002433A4F89C50C4F88C304FF4C80384F8BC
:10234000A85084F8A95084F8AA50C4E9283500237D
:10235000C4F8AC30C4F8B030C4F8B430C4F8B83005
:102360000B4BC4F8983022F0F2FB0A4A20460A4987
:1023700022F005FC014870BDB05E0024E85E002438
:1023800080980290247C02909C7C02903498029069
:1023900014980290000000247B1C009038B5184C63
:1023A00023685BB3174B184A1B6C11888B4216D1FC
:1023B000164B0025198804F09FFC236893F86A20C7
:1023C00083F87C50013283F86A2000F05DFB2068BE
:1023D0000AF060FC2846BDE8384001F0DBBB04F0A1
:1023E0008BFC2468236820461B6A98470123002041
:1023F00084F87C30BDE8384001F0FCBB38BD00BF3C
:10240000DC14022400100050E65E0024E45E002488
:1024100010B50446482122F0B7FB204610BD00004D
:1024200038B5144D144C284600F068FD2246134977
:10243000284622F0A4FB1248124B012212490360E5
:10244000002380F8272080F82C20224680F82430B2
:1024500080F8253080F8263080F828304360C0E9C5
:102460000233C0E90433C0E90633BDE8384022F046
:1024700086BB00BFA45F0024000000247F1C0090E6
:10248000B45E0024E87C0290791C009003685B6CC9
:10249000184701207047FEE7104B82B0D3F8D420D4
:1024A00042F01002C3F8D420D3F8D42002F0100276
:1024B0000192019ADA6F42F01002DA67DA6F22F0C5
:1024C0001002DA67064B074A1A62074A5A62074B3C
:1024D0004FF080629A6002B0704700BF004402581B
:1024E00068210224F92400909724009000E100E084
:1024F00040F2EF3070470000024B1B6858680368D9
:102500005B691847DC14022408B50B280BD8DFE8F8
:1025100000F01206100A0A0A0A0808080808012032
:1025200008BD0520FCE7054B7021054A054823F04E
:10253000B3FB0020F4E70220F2E700BFF28C029028
:10254000C28D02900D8D029008B50A2809D8DFE8E7
:1025500000F010060E08080808060606060001200E
:1025600008BD054B9121054A054823F095FB002045
:10257000F6E70220F4E700BFF28C02900C8E029086
:102580000D8D0290F8B50C46487FFFF7BDFF05465C
:10259000A77F3846FFF7B8FF06463846FFF7D4FF57
:1025A000A38A628BD21A494B1A64A18A628B521A8F
:1025B0009A61A18A228B521A1A615863A18AE28A0F
:1025C00042EA01425A642269DA636268DA60226888
:1025D000402A70D010D8042A3BD0202A6BD0237F09
:1025E00045EA0365394B45F40035DD61617FA27F23
:1025F000914267D0364A4BE0B2F5807F1BD0B2F5EE
:10260000007F23D0802AEAD1A068021DDA62227FEF
:1026100045EA026545F40035DD615E6222695A6172
:102620000278EAB1012A35D02A4B40F21B112A4A1E
:102630002A4823F031FB217F294A42EA0162DA610C
:10264000E2681A625E6222695A6120E0217F254AAF
:10265000F3E7227F45EA026545F40035DD61F1E7E5
:10266000D9694288501E21F47F42012122F01002D4
:1026700042EA0022DA61154BDA6942F02002DA619F
:10268000DA699206FCD410229A600029B2D0164A68
:102690001A60F8BDDA69408822F47F42217F013850
:1026A00022F01002FF3942F0100218BF012142EA65
:1026B0000022DA61DFE7237F45EA0365034B45F437
:1026C0000035CBE742F20132E2E700BF00100052D2
:1026D00001230100D88C0290848D02900D8D029010
:1026E0000A000200090002000123020010B5887FE1
:1026F0000C46FFF729FF1C4B5863A18AE28A42EA85
:1027000001425A642269DA63628BA18A521A1A64FE
:102710002268082A16D1A18A628B521A9A61A18A6C
:10272000628B521A1A615862104A217F42EA016292
:10273000DA61E2681A6222695A612269DA600C4A37
:102740001A6010BD0022D8611A61E1680A0A4809BE
:10275000C1F3C40102F4784200F4FC6002430A436E
:102760009A63044AECE700BF001000520900010020
:102770000123020001230300054B4FF08062036038
:10278000044BC3F88820BFF34F8FBFF36F8F7047A0
:102790003C8D029000E100E010B50446FFF7ECFF2D
:1027A00040F6A451204622F0EFF9204610BD00006B
:1027B000012309491C2203720868084B02FB003000
:1027C000007E20B1086802FB003001F0B9B808684B
:1027D00002FB003001F072B80C7300240C000024DE
:1027E00010B590F8A03D0446ABB903689B6A9847C2
:1027F000174B1A681C235343164AD35C012B09D18B
:10280000154A126832B9227A22B984F8A03D2046CE
:10281000FFF7CEFF10BD037A4BB1002303721C20DB
:102820000B4B1A680B4B00FB023001F00BF9606890
:1028300003681B6898470028ECD1637A002BE9D025
:10284000236884F8A00D20465B6ABDE81040184755
:102850000C7300240C0000240873002410B50446F7
:10286000406803681B68984758B9637A4BB1237A6C
:102870003BB984F8A03D20462368BDE810405B6A60
:102880001847084B1A681C235343074AD35C012B93
:1028900006D1227A22B984F8A03D2046FFF788FFAE
:1028A00010BD00BF0C7300240C00002470B5054659
:1028B0000B4B0C3000262C46602268602E726E7224
:1028C00044F8203B21460AF041FB05F55A63E660D7
:1028D0002434A342FBD185F8A06D284670BD00BF0B
:1028E0003C8D0290034B1A68D207FCD423229A60D5
:1028F000704700BF001000520C4B5A6912F4803F21
:102900001A4611D000290FDD00F01F031944BFF350
:102910004F8F0144C2F8680220300B1A002BF9DCFB
:10292000BFF34F8FBFF36F8F704700BF00ED00E024
:1029300030B5104C2568ED07FCD423250904FF2B86
:10294000A56041F001014FF0020565636164E06339
:102950000AD00949656241EA0363E361074B2262D9
:102960006061E060236030BDE561039BA363044BBD
:10297000F8E700BF0010005209000100010002004A
:102980000100030030B50F4C2568ED07FCD423256A
:102990001204FF2BA56042F001024FF002056563AF
:1029A0006264E063E16008D01B0643F00213E36158
:1029B000054B65626061236030BD044BE361012318
:1029C000F9E700BF0010005201000200020002FF00
:1029D00030B50B4C2568ED07FCD4232512041B06EB
:1029E000A56042F00102022543F40033656362648E
:1029F000E063E160E361034B65626061236030BDC9
:102A000000100052010002000121002208B5084612
:102A100007F089FE0A4B186028B90A4B28210A4A98
:102A20000A4823F039F900220421012007F01CFF95
:102A3000074B186018B9074B2C21034AF0E708BD73
:102A4000F05F0024578E02900B8F0290A08E0290B0
:102A5000EC5F0024C98E0290024B4FF0FF311868E2
:102A600007F0ACBEF05F0024014B186807F0D2BE3F
:102A7000F05F0024024B0021186807F09FBE00BFE2
:102A8000F05F0024FFF7F0BF0023034803491A4614
:102A9000006807F025BF00BFEC5F0024040000249D
:102AA00013B50023074C01A91A46206807F04AFF16
:102AB0004FF0FF33002201A9206807F043FF02B066
:102AC00010BD00BFEC5F002470477047704770472F
:102AD000012070470C2070470C2303FB01000830D5
:102AE00070470C2303FB010008307047012070473A
:102AF0004FF4217070474FF4217303FB010008303D
:102B000070474FF4217303FB010008307047012028
:102B100070471020704700EB01100830704700EB41
:102B20000110083070470846FEF7BABB034B10B5DA
:102B30000446036009F032F8204610BDAC8F0290C5
:102B400010B50446FFF7F2FF1421204622F01CF8CE
:102B5000204610BD034B10B50446036009F01EF873
:102B6000204610BD788F029010B50446FFF7F2FFA3
:102B70004FF42371204622F007F8204610BD0000D4
:102B8000034B10B50446036009F008F8204610BD59
:102B9000448F029010B50446FFF7F2FF182120463B
:102BA00021F0F2FF204610BD084B10B5044603602B
:102BB00000F52E70FFF7BAFF04F12C00FFF7CAFFF3
:102BC00004F11400FFF7DCFF204610BDE08F0290F7
:102BD00010B50446FFF7E8FF40F22C41204621F0F3
:102BE000D3FF204610BD00002DE9F341FEF7DCFEC7
:102BF00000240546FEF7DCFE234601462246284611
:102C0000009412F0E3FE284B284A2046284D1A6013
:102C1000FEF760FF274B284A28489A6012F03EFED4
:102C20002B78BFF35B8FDB0738D4284621F083FF76
:102C3000002833D0224C234B04F5347604F11400E1
:102C400004F12C0804F52E776060C4F80880E76072
:102C50002661236008F0A4FF1B4B4046636108F027
:102C60009FFF1A4B3846E36208F09AFF184B04F5B1
:102C70003370C4F8B832FDF7BFFD224604F5337156
:102C80003046FDF7EDFD3046FEF70AFB284621F001
:102C90005EFF104A1049204621F071FF0F4802B034
:102CA000BDE8F04100F0F2BE401502247872002425
:102CB000F45F00247C7200242464002408000024B3
:102CC000F85F0024E08F0290448F0290788F02908A
:102CD000AC8F029000000024A92B0090E871002422
:102CE00070470000014800F0E7BE00BFE871002413
:102CF00010B50446042121F047FF204610BD10B551
:102D000004468C2121F040FF204610BD10B504463A
:102D10001C2121F039FF204610BD10B5044690213A
:102D200021F032FF204610BD2DE9F041494C4A4DBB
:102D30004A4B22464A4F28464A492B6021F01FFF42
:102D4000494E3846FFF7B2FD22464849384621F041
:102D500016FFDFF85881304617F040FF22464449FD
:102D6000304621F00CFF404610F03CFB2246414922
:102D7000404621F004FF22463F49404821F0FFFE33
:102D80003F48002301223F49C560038580F82A306F
:102D9000C362038680F8483080F8492080F84A30C2
:102DA00080F84B30436580F858304366816680F880
:102DB0006C3080F86D3080F86E303349C0E90176B0
:102DC000C0E90433C0E90633C0E90833C0E90E3373
:102DD000C0E91033C0E91333C0E9173380F86F300E
:102DE00080F87A2080F87B200422C0F8883080F8B0
:102DF0007D20442280F87030A0F87E2016224367A0
:102E0000A0F88020142280F87830A0F882201F4A91
:102E100080F8793010604FF4F07280F87C300A80CE
:102E20001B4980F834300A804FF488721949C0F881
:102E30008C300A8018490A80184A19491370194AB7
:102E4000194B02602246C0F88430BDE8F04121F001
:102E500096BE00BF000000244064002484930290CA
:102E600044640024C92A00907C72002479270090D1
:102E7000CB2A0090CD2A00905D1900900800002414
:102E8000E871002401000001D0140224DC140224A3
:102E9000D6140224D2140224D8140224D4140224F6
:102EA000CF2A0090989202909C9302902464002470
:102EB0004069704790F840007047036B23B9C06ABF
:102EC000003018BF012070470120704780687047AC
:102ED0007047043010B50C460FC884E80F0010BDD1
:102EE00008B5034A4FF4FC71024B034822F0D4FEAC
:102EF000C69102902B7A02903590029000220E4BE0
:102F000010B5114604460360C26380F84020C0E952
:102F10000522C0E90722C0E90922C0E90B22C0E965
:102F20000D22C0E90322C0E90122012007F0FBFBCA
:102F3000024B1860204610BDFC9002908075002462
:102F400030B41546026B42B1C46B406B0C1B20447D
:102F500029461A4630BC23F0E7BAC06A0844F7E7AE
:102F600010B5036B73B1C36B426BC91A5318525C33
:102F700098785C78000440EA04201043DB7840EA4B
:102F8000036010BDC26A5318525C597898780004E7
:102F900040EA0120F1E7036B43B1C36BC91A436BED
:102FA0005A18585C527840EA02207047C36A5A188F
:102FB000585C537840EA03207047000070B504461F
:102FC000006B0D461646D8B1A36B934208D2092375
:102FD0000D4AB1210D4884F840300D4B22F05CFEC3
:102FE0000368DB689847206B3246616B03681B6996
:102FF000984710B90D2384F84030606BE56370BDCD
:10300000E06A0844FBE700BF4E92029035900290C0
:10301000DE9002902DE9F041436904462BB9214B23
:10302000F721214A214822F037FE08228169FFF763
:10303000C5FFA16943F2300646F2643504312046EB
:10304000FFF78EFFA169A36A084400F108029A42C3
:1030500020D2636909300822013320F001012046A3
:103060006361A161FFF7AAFFA1692046FFF793FF03
:10307000A169804620460231FFF78DFFA16907460E
:1030800020460431FFF76CFFB045DBD1AF42D9D108
:10309000012004E0012300206361236AA361BDE8ED
:1030A000F08100BFEC8F0290389102903590029031
:1030B00070B50368002914BF0D4601250446DB6A7C
:1030C0009847A84204D223682046DB6A9847054601
:1030D00005F18053E66910222046013B06EB0316FA
:1030E00006F10801FFF76AFF06F110012046FFF71D
:1030F00037FF236A043B0344C4E9055370BD000055
:10310000002148222DE9F0410446816180F84010F9
:10311000FFF754FFA5690423634A29462046FFF7B9
:103120000FFF48B10323614A40F23F1184F8403059
:103130005F4B604822F0B0FD05F1080104235E4AB0
:103140002046A161FFF7FCFE38B10423574A40F244
:10315000471184F84030594BEBE705F10C0104238B
:10316000574A2046A161FFF7EBFE074638B1052319
:103170004E4A4FF4A77184F84030524BD9E705F11D
:1031800010012046FFF7ECFEA669054620B94E4B1C
:103190004FF4AA71454ACCE706F1080804234B4ACC
:1031A00020464146FFF7CCFE002846D0062384F88F
:1031B00040300423464A06F10C012046FFF7C0FECA
:1031C00000283CD0072384F840304544414F0C226E
:1031D00020462946FFF7F2FE05F1080604233A4689
:1031E00020463146FFF7ACFE94F84030002845D128
:1031F000002B53D105F10C0304352046A361294669
:10320000FFF7AEFE3044294660622046FFF7A8FE75
:103210000644042220463146FFF7D0FE04232E4AFE
:1032200031462046FFF78CFE00283BD10123E661A2
:103230006361A3692362BDE8F0810127B9E7002F2C
:10324000C3D006F114012046FFF78AFE4FF47A73CB
:1032500006F12401B0FBF3F060602046FFF780FE2A
:1032600006F13401A0602046FFF77AFE06F138012E
:10327000E0602046FFF774FE2061A6E773B9A36AF9
:10328000AB42B7D9291D2046FFF76AFE08300C2251
:10329000054420462946FFF791FE9DE70A2384F85E
:1032A0004030C8E70B23FAE7689002902192029021
:1032B0006D90029035900290869002908B900290D3
:1032C000A3900290A8900290BE900290CA900290A3
:1032D000CF900290D4900290D9900290C0E90A2138
:1032E00000220263FFF70CBF002310B50163044600
:1032F000C36208460B689B689847A0622046BDE8F9
:103300001040FFF7FDBE000073B500231C4D1D4C9F
:103310002B601D4D236029601C4C1D4D23602A60CD
:1033200001251C4A1C4C236013601C4A13601C4A74
:10333000137013769376137782F8343082F8353031
:1033400082F836305576C2E90233C2E90433C2E965
:103350000933C2E90B33134B5E6B06B11576246853
:103360001C2505FB0422DC684FF4C0736343009303
:1033700053684FF4504204F093FD002002B070BD3A
:103380006C75002470750024747500240C7300247F
:1033900078750024107300247C7500245475002473
:1033A0000C000024147500244B68012B0ED1CB684F
:1033B0001A071EBF23F00F031033CB608B6818076A
:1033C00003D023F00F0310338B607047022B0DD115
:1033D000CB681A0703D023F00F031033CB608B6840
:1033E0005A07F2D023F007030833EDE7002BECD1A6
:1033F000CB685807F3D023F007030833EEE700004B
:103400000B4B30B41A680A441A600A4B1B689A4284
:103410000CD2094C9A1A2568B2F5504F294428BF9E
:103420004FF45042216030BC04F09DBD30BC704769
:103430006C75002478750024747500242DE9F84318
:10344000464C8046DFF830E12368DFF830911033D6
:10345000DFF82CC1D9F8006023601C23DEF80010CF
:103460003F4F03FB01C13F684E613E490D697D43FB
:10347000274606EB05164D69C9F8006026687446B4
:10348000B54265460E460CD3DEF80040CA684FF4DC
:10349000C07103FB04C34A435968BDE8F84304F014
:1034A00065BDDEF80010012059430CF80100DEF87C
:1034B000001003FB01C18A600021DEF8002003FB3D
:1034C00002C21161326B22B1DEF8002003FB02C39D
:1034D00018763B68B2699A4224D923681C2202FB01
:1034E000035300229A762368013323602368012B5B
:1034F00000D9226022681C235343EB5C33B10221C4
:10350000404604F002FD184B01221A601C2123687A
:10351000F268404601FB03534FF4C0714A435968B7
:1035200004F024FD3B68B2699A420BD823681C2240
:103530000221404602FB035501230C4AAB7613607F
:1035400004F0E3FC0A4B1B681B7A2BB9094B186883
:10355000BDE8F84307F05EB9BDE8F8835475002470
:103560005C750024147500247075002468750024AF
:1035700058750024807500247C7500246075002433
:103580000C00002472B6FEE7014B01221A6070475E
:103590006875002438B51B4D04462A6842B11A4BA1
:1035A0001B682BB105F0D3F8042827D0012038BDC3
:1035B000164B1868037A6BB9154B1A681C235343D2
:1035C000144AD35C012B05D10F4B1B6813B9036858
:1035D0001B699847104A1368012B0DD10F4B1968CE
:1035E0001C234B430B49CB5C33B92B6823B9022115
:1035F0002046136004F055FF0220D8E7204604F06F
:10360000B8FCD3E7687500240873002458750024BB
:103610000C7300240C000024707500247C750024B9
:1036200070B50546002A38D0002B36D01B4802243E
:103630000461EC6826071A4E1CBF24F00F041034F6
:1036400004604FF47074446004682409C4602C69F9
:1036500014F00F0418BFC4F1100484601148124C18
:1036600003600F48FFF750FE6A6C104B25461A6046
:103670003046FFF78FFF20602368022B05D10C4BEB
:103680004FF0FF31186807F099F82B68012BEFD144
:103690000023084A1360084A136070BD14750024A3
:1036A00010210224607500246475002458750024DC
:1036B0008075002468750024087300242DE9FF47F5
:1036C0009846436904460E4617462BB92A4BC32138
:1036D0002A4A2B4822F0E0FA08228169FFF76EFCA3
:1036E000A1692046FFF757FCA169824620460231B6
:1036F000FFF751FCA169814620460431FFF730FCF9
:10370000A169A36A0546083142189A4226D243F2BB
:1037100030039A4516D146F26433994512D188B1E7
:103720000246A1612046FFF749FC0C9B0146009729
:103730002A462046CDE901833346FFF771FF6369CE
:1037400001336361A3692B448DB1A361A369626AEC
:10375000013323F001039342A3610AD10120236ABC
:103760006061A36180F0010004B0BDE8F087083318
:10377000EBE70020F6E700BFEC8F02906B91029020
:10378000359002902DE9F04706468A4690468169B9
:1037900008229946FFF712FCB16930460431FFF761
:1037A000DFFBB1690246074608313046FFF706FCE9
:1037B000394A02230146F06813610307BAF902C0CF
:1037C000BAF8064014BF20F00F0310606444C2F83A
:1037D00014C018BF103324B218BF13604FF47073B5
:1037E000536013681B09D36033699C4228BF1C4691
:1037F000BAF9003094612546BAF804404FEA131E26
:10380000D3611C4403F00F03C2F824E024B2136315
:103810000CF00F038442536328BF04461F4B14620D
:1038200004F10F0014F00F04C3F800904FEA1010D9
:103830001B4B18BFC4F1100415F00F059062A0EBEC
:103840000E0018BFC5F110059463164CD062D56305
:103850003A46C3F80080434613482546FFF754FD17
:10386000726C124B104E1A603046FFF793FE2060C8
:103870002368022B05D10E4B4FF0FF31186806F07C
:103880009DFF28680128EFD100230A4A13600A4AE5
:103890001360BDE8F08700BF147500245C75002438
:1038A00060750024647500241021022458750024DA
:1038B0008075002468750024087300241C4903697E
:1038C000F0B5CD6A4FF4C0778A6BEC1A056102251A
:1038D000C2EB04124C6A23440C6912F00F064FEA43
:1038E000041407FB03F718BFC6F110065C43114B25
:1038F0005D63150490F81AC0BCF1000F13D0C96BBA
:10390000C1F11001294359644169C2F5F0720C44B8
:10391000DC631A64084A1E61DA6142683A44DA607C
:10392000064A1A60F0BD45F010055D64ECE700BF83
:1039300014750024001000520B0009FF0123010040
:103940002DE9F04F01698BB00446374A002966D152
:10395000136BD06A677E0138D2F834908142A07E22
:103960000CBFD2F838804FF00008002F14BFCE46AD
:103970004FF0000E002854D0D2F83CC0D2F810B05E
:103980004FF01E0A506A4FF4C0750EFB0BF6084448
:1039900003FB0BF20AFB06FA013145430BFB00A0C7
:1039A000216102EB001002EB06120026B9F1000FB4
:1039B00000D007B92676C3F110031C4F01210496ED
:1039C000A3EB08033A44019101A9ADF81830CEF1F8
:1039D00010030292A3EB0C038DF821608DF8226096
:1039E000ADF81A30124B079363691844114B0590D8
:1039F000186803685B6898470F4B02225A634FF0C0
:103A000010125A640D4ADF631E641E61DA61626837
:103A100015440B4ADD601A600BB0BDE8F08F00233F
:103A200097E78446AAE700BF1475002414730024A6
:103A30001000E00158750024001000520B0009FF2F
:103A4000012301000D4B0269DB6A9A4215D1002364
:103A50000B4A03701168836001310376437611606D
:103A60001168012900D91360837E13B1054B01222F
:103A70001A60054B186806F0CDBE70471475002417
:103A80000C730024087300248075002438B50446A4
:103A9000FEF7F6F90749236804F184052046D3F8B8
:103AA00090309847284600F049F90123256184F8B1
:103AB000703038BD00F807D008B503680446D3F865
:103AC0008430984723682046DB6F9847FEF7E8FF6D
:103AD000236820465B6F984701228021074803F046
:103AE00077FE01220648114603F072FEFEF7D8FF6A
:103AF000236820465B6F9847F8E700BF000C025828
:103B000000280258FEF7AAB8FEF7AEB8F8B5FEF7DF
:103B1000DBF9134A0023C2F88430BFF34F8FD2F889
:103B2000803043F6E076C3F3C904C3F34E33A507F0
:103B30005B0103EA060C284621464CEA00070139DE
:103B400000F14040C2F874724F1CF6D1203B13F1D3
:103B5000200FEED1BFF34F8FBFF36F8FF8BD00BFC3
:103B600000ED00E0FEF756B8FEF766BBFEF76EBB51
:103B7000FEF75AB808F0BCBA08B5054B01461B68F9
